:020000040800F2
:100000000000022095340008BD330008C333000807
:10001000C9330008CF330008D533000800000000C2
:1000200000000000000000000000000051840008F3
:10003000DB33000800000000A186000809870008E3
:10004000E5340008E5340008E5340008E53400082C
:10005000E5340008E5340008E5340008E53400081C
:10006000E5340008E5340008E5340008E53400080C
:10007000E5340008E5340008E5340008E5340008FC
:10008000E5340008E5340008E5340008E5340008EC
:10009000E5340008E5340008E5340008E9330008D9
:1000A000E5340008E5340008E5340008E5340008CC
:1000B000F9330008E5340008E5340008E5340008A9
:1000C000E5340008E5340008E5340008E5340008AC
:1000D000E53400080D3400082134000835340008E8
:1000E000E5340008E5340008E5340008E53400088C
:1000F000E534000849340008E5340008E534000818
:10010000E5340008E5340008E5340008E53400086B
:10011000E5340008E5340008E5340008E53400085B
:100120005D340008E5340008E5340008E5340008D3
:10013000E5340008E5340008E5340008E53400083B
:10014000E5340008E5340008E5340008E53400082B
:10015000E5340008E5340008E5340008E53400081B
:10016000E5340008E5340008E5340008E53400080B
:10017000E5340008E5340008E5340008000000001C
:08018000E5340008E534000835
:1001900010B5054C237833B9044B13B10448AFF3C1
:1001A00000800123237010BDC80000200000000063
:1001B0005C8D000808B5034B1BB103490348AFF33E
:1001C000008008BD00000000CC0000205C8D00080D
:1001D00081F0004102E000BF83F0004330B54FEAF8
:1001E00041044FEA430594EA050F08BF90EA020F65
:1001F0001FBF54EA000C55EA020C7FEA645C7FEAF8
:10020000655C00F0E2804FEA5454D4EB5555B8BF1A
:100210006D420CDD2C4480EA020281EA030382EA8B
:10022000000083EA010180EA020281EA0303362D1D
:1002300088BF30BD11F0004F4FEA01314FF4801CF0
:100240004CEA113102D0404261EB410113F0004F02
:100250004FEA03334CEA133302D0524263EB4303B9
:1002600094EA050F00F0A780A4F10104D5F1200E57
:100270000DDB02FA0EFC22FA05F2801841F10001B2
:1002800003FA0EF2801843FA05F359410EE0A5F186
:1002900020050EF1200E012A03FA0EFC28BF4CF0B7
:1002A000020C43FA05F3C01851EBE37101F000456D
:1002B00007D54FF0000EDCF1000C7EEB00006EEB7A
:1002C0000101B1F5801F1BD3B1F5001F0CD3490804
:1002D0005FEA30004FEA3C0C04F101044FEA44525B
:1002E00012F5800F80F09A80BCF1004F08BF5FEAE2
:1002F000500C50F1000041EB045141EA050130BDC2
:100300005FEA4C0C404141EB0101013C28BFB1F5D3
:10031000801FE9D291F0000F04BF01460020B1FA1E
:1003200081F308BF2033A3F10B03B3F120020CDAF1
:100330000C3208DD02F1140CC2F10C0201FA0CF0CF
:1003400021FA02F10CE002F11402D8BFC2F1200C34
:1003500001FA02F120FA0CFCDCBF41EA0C019040EA
:10036000E41AA2BF01EB0451294330BD6FEA040433
:100370001F3C1CDA0C340EDC04F11404C4F120021E
:1003800020FA04F001FA02F340EA030021FA04F330
:1003900045EA030130BDC4F10C04C4F1200220FA87
:1003A00002F001FA04F340EA0300294630BD21FAC5
:1003B00004F0294630BD94F0000F83F4801306BF8B
:1003C00081F480110134013D4EE77FEA645C18BF7F
:1003D0007FEA655C29D094EA050F08BF90EA020F16
:1003E00005D054EA000C04BF1946104630BD91EA0E
:1003F000030F1EBF0021002030BD5FEA545C05D111
:100400004000494128BF41F0004130BD14F580044F
:100410003CBF01F5801130BD01F0004545F0FE41C3
:1004200041F470014FF0000030BD7FEA645C1ABFF8
:10043000194610467FEA655C1CBF0B46024650EA2F
:10044000013406BF52EA033591EA030F41F400215B
:1004500030BD00BF90F0000F04BF0021704730B5E1
:100460004FF4806404F132044FF000054FF00001B6
:1004700050E700BF90F0000F04BF0021704730B577
:100480004FF4806404F1320410F0004548BF40424C
:100490004FF000013EE700BF42004FEAE2014FEAA1
:1004A00031014FEA02701FBF12F07F4393F07F4F7C
:1004B00081F06051704732F07F4208BF704793F07F
:1004C0007F4F04BF41F40021704730B54FF4607492
:1004D00001F0004521F000411CE700BF50EA010295
:1004E00008BF704730B54FF000050AE050EA01023E
:1004F00008BF704730B511F0004502D5404261EBAE
:1005000041014FF4806404F132045FEA915C3FF4EE
:10051000D8AE4FF003025FEADC0C18BF03325FEA8B
:10052000DC0C18BF033202EBDC02C2F1200300FA3C
:1005300003FC20FA02F001FA03FE40EA0E0021FA61
:1005400002F11444BDE600BF70B54FF0FF0C4CF44F
:10055000E06C1CEA11541DBF1CEA135594EA0C0F01
:1005600095EA0C0F00F0DEF82C4481EA030621EA3C
:100570004C5123EA4C5350EA013518BF52EA033577
:1005800041F4801143F4801338D0A0FB02CE4FF029
:100590000005E1FB02E506F00042E0FB03E54FF059
:1005A0000006E1FB03569CF0000F18BF4EF0010E51
:1005B000A4F1FF04B6F5007F64F5407404D25FEA4D
:1005C0004E0E6D4146EB060642EAC62141EA555100
:1005D0004FEAC52040EA5E504FEACE2EB4F1FD0C42
:1005E00088BFBCF5E06F1ED8BEF1004F08BF5FEAC0
:1005F000500E50F1000041EB045170BD06F0004672
:1006000046EA010140EA020081EA0301B4EB5C041E
:10061000C2BFD4EB0C0541EA045170BD41F4801116
:100620004FF0000E013C00F3AB8014F1360FDEBF3B
:10063000002001F0004170BDC4F10004203C35DA17
:100640000C341BDC04F11404C4F1200500FA05F39A
:1006500020FA04F001FA05F240EA020001F000423B
:1006600021F0004110EBD37021FA04F642EB0601B1
:100670005EEA430E08BF20EAD37070BDC4F10C04DB
:10068000C4F1200500FA04F320FA05F001FA04F29F
:1006900040EA020001F0004110EBD37041F100018B
:1006A0005EEA430E08BF20EAD37070BDC4F1200596
:1006B00000FA05F24EEA020E20FA04F301FA05F2FE
:1006C00043EA020321FA04F001F0004121FA04F2A6
:1006D00020EA020000EBD3705EEA430E08BF20EA76
:1006E000D37070BD94F0000F0FD101F000464000B0
:1006F00041EB010111F4801F08BF013CF7D041EA32
:10070000060195F0000F18BF704703F00046520035
:1007100043EB030313F4801F08BF013DF7D043EA06
:100720000603704794EA0C0F0CEA135518BF95EABC
:100730000C0F0CD050EA410618BF52EA4306D1D143
:1007400081EA030101F000414FF0000070BD50EA62
:10075000410606BF1046194652EA430619D094EAEC
:100760000C0F02D150EA013613D195EA0C0F05D1D6
:1007700052EA03361CBF104619460AD181EA03012A
:1007800001F0004141F0FE4141F470014FF00000E2
:1007900070BD41F0FE4141F4780170BD70B54FF07D
:1007A000FF0C4CF4E06C1CEA11541DBF1CEA1355FD
:1007B00094EA0C0F95EA0C0F00F0A7F8A4EB0504DF
:1007C00081EA030E52EA03354FEA013100F08880D6
:1007D0004FEA03334FF0805545EA131343EA12639F
:1007E0004FEA022245EA111545EA10654FEA002654
:1007F0000EF000419D4208BF964244F1FD0404F50D
:10080000407402D25B084FEA3202B61A65EB030568
:100810005B084FEA32024FF480104FF4002CB6EB25
:10082000020E75EB030E22BFB61A754640EA0C00A5
:100830005B084FEA3202B6EB020E75EB030E22BFE5
:10084000B61A754640EA5C005B084FEA3202B6EB26
:10085000020E75EB030E22BFB61A754640EA9C00E5
:100860005B084FEA3202B6EB020E75EB030E22BFB5
:10087000B61A754640EADC0055EA060E18D04FEA73
:10088000051545EA16754FEA06164FEAC30343EA13
:1008900052734FEAC2025FEA1C1CC0D111F4801FE0
:1008A0000BD141EA00014FF000004FF0004CB6E7D9
:1008B00011F4801F04BF01430020B4F1FD0C88BF78
:1008C000BCF5E06F3FF6AFAEB5EB030C04BFB6EB83
:1008D000020C5FEA500C50F1000041EB045170BD76
:1008E0000EF0004E4EEA113114EB5C04C2BFD4EBA3
:1008F0000C0541EA045170BD41F480114FF0000E27
:10090000013C90E645EA060E8DE60CEA135594EAA2
:100910000C0F08BF95EA0C0F3FF43BAF94EA0C0FA5
:100920000AD150EA01347FF434AF95EA0C0F7FF41A
:1009300025AF104619462CE795EA0C0F06D152EA6E
:1009400003353FF4FDAE1046194622E750EA410652
:1009500018BF52EA43067FF4C5AE50EA41047FF463
:100960000DAF52EA43057FF4EBAE12E74FF0FF3CC8
:1009700006E000BF4FF0010C02E000BF4FF0010C99
:100980004DF804CD4FEA410C7FEA6C5C4FEA430C12
:1009900018BF7FEA6C5C1BD001B050EA410C0CBF61
:1009A00052EA430C91EA030F02BF90EA020F0020C3
:1009B000704710F1000F91EA030F58BF994208BF2A
:1009C00090422CBFD8176FEAE37040F001007047E7
:1009D0004FEA410C7FEA6C5C02D150EA013C07D13E
:1009E0004FEA430C7FEA6C5CD6D152EA033CD3D089
:1009F0005DF8040B704700BF8446104662468C4683
:100A00001946634600E000BF01B5FFF7B7FF0028B5
:100A100048BF10F1000F01BD4DF808EDFFF7F4FFDE
:100A20000CBF012000205DF808FB00BF4DF808ED69
:100A3000FFF7EAFF34BF012000205DF808FB00BF8C
:100A40004DF808EDFFF7E0FF94BF012000205DF8AE
:100A500008FB00BF4DF808EDFFF7CEFF94BF012063
:100A600000205DF808FB00BF4DF808EDFFF7C4FF5C
:100A700034BF012000205DF808FB00BF4FEA4102AF
:100A800012F5001215D211D56FF47873B3EB6252E0
:100A900012D94FEAC12343F0004343EA505311F007
:100AA000004F23FA02F018BF404270474FF0000099
:100AB000704750EA013005D111F0004008BF6FF0D7
:100AC000004070474FF00000704700BF53B94AB96B
:100AD000002908BF00281CBF4FF0FF314FF0FF3046
:100AE00000F074B9ADF1080C6DE904CE00F006F821
:100AF000DDF804E0DDE9022304B070472DE9F0479A
:100B0000089D04468E46002B4DD18A42944669D9F1
:100B1000B2FA82F252B101FA02F3C2F1200120FAD4
:100B200001F10CFA02FC41EA030E94404FEA1C4822
:100B3000210CBEFBF8F61FFA8CF708FB16E341EA1E
:100B4000034306FB07F199420AD91CEB030306F1A4
:100B5000FF3080F01F81994240F21C81023E6344C5
:100B60005B1AA4B2B3FBF8F008FB103344EA034469
:100B700000FB07F7A7420AD91CEB040400F1FF337E
:100B800080F00A81A74240F207816444023840EABB
:100B90000640E41B00261DB1D4400023C5E90043F4
:100BA0003146BDE8F0878B4209D9002D00F0EF8077
:100BB0000026C5E9000130463146BDE8F087B3FAAA
:100BC00083F6002E4AD18B4202D3824200F2F98092
:100BD000841A61EB030301209E46002DE0D0C5E995
:100BE000004EDDE702B9FFDEB2FA82F2002A40F0E1
:100BF0009280A1EB0C014FEA1C471FFA8CFE0126E4
:100C0000200CB1FBF7F307FB131140EA01410EFB87
:100C100003F0884208D91CEB010103F1FF3802D22E
:100C2000884200F2CB804346091AA4B2B1FBF7F028
:100C300007FB101144EA01440EFB00FEA64508D94B
:100C40001CEB040400F1FF3102D2A64500F2BB8088
:100C50000846A4EB0E0440EA03409CE7C6F12007D7
:100C6000B34022FA07FC4CEA030C20FA07F401FA1D
:100C700006F31C43F9404FEA1C4900FA06F3B1FBA6
:100C8000F9F8200C1FFA8CFE09FB181140EA01410B
:100C900008FB0EF0884202FA06F20BD91CEB0101A8
:100CA00008F1FF3A80F08880884240F28580A8F100
:100CB00002086144091AA4B2B1FBF9F009FB101152
:100CC00044EA014100FB0EFE8E4508D91CEB0101F0
:100CD00000F1FF346CD28E456AD90238614440EA93
:100CE0000840A0FB0294A1EB0E01A142C846A64613
:100CF00056D353D05DB1B3EB080261EB0E0101FA9C
:100D000007F722FA06F3F1401F43C5E900710026F8
:100D10003146BDE8F087C2F12003D8400CFA02FC4E
:100D200021FA03F3914001434FEA1C471FFA8CFE5E
:100D3000B3FBF7F007FB10360B0C43EA064300FB4E
:100D40000EF69E4204FA02F408D91CEB030300F1EC
:100D5000FF382FD29E422DD9023863449B1B89B2A3
:100D6000B3FBF7F607FB163341EA034106FB0EF32C
:100D70008B4208D91CEB010106F1FF3816D28B42D9
:100D800014D9023E6144C91A46EA004638E72E46A5
:100D9000284605E70646E3E61846F8E64B45A9D29D
:100DA000B9EB020864EB0C0E0138A3E74646EAE70C
:100DB000204694E74046D1E7D0467BE7023B6144BA
:100DC00032E7304609E76444023842E7704700BF23
:100DD00080B485B000AFF860B9607A60FB68074AFC
:100DE0001A60BB68064A1A607B6880221A6000BFDE
:100DF0001437BD465DF8047B704700BFE400002057
:100E00009801002000000000B0B500AF964B1A68B2
:100E1000964B1B68D31A964A1360934B1B68002BA2
:100E20001DDB934B1B68002B0CDA924984A3D3E99A
:100E30000023C1E9002390494FF033328F4BC1E9C1
:100E4000002329E08B4980A3D3E90023C1E90023D3
:100E500089494FF000028A4BC1E900231CE0844B12
:100E60001B68002B0CDD834975A3D3E90023C1E97E
:100E7000002381494FF03332804BC1E900230BE05E
:100E80007C4971A3D3E90023C1E900237A4970A307
:100E9000D3E90023C1E90023754B1B681846FFF70F
:100EA000E9FA754BD3E90023FFF74EFB02460B46E8
:100EB0007449C1E900236E4B1B681846FFF7DAFA44
:100EC000714BD3E90023FFF787F902460B46104622
:100ED00019466E4BD3E90023FFF736FB02460B465B
:100EE000104619465CA3D3E90023FFF757FC0246DE
:100EF0000B466749C1E900235E4BD3E900234FF05D
:100F000000006449FFF768F902460B46104619468F
:100F1000614BD3E90023FFF717FB02460B4614464B
:100F20001D46544BD3E90001594BD3E90023FFF789
:100F30000BFB02460B4620462946FFF74FF90246B7
:100F40000B465649C1E90023494B1B681846FFF779
:100F500091FA02460B464C49C1E900234F4BD3E9B5
:100F600000234D49C1E900234D4BD3E900014FF067
:100F700000024FF00003FFF777FD0346002B03D07C
:100F8000484B01221A600FE0454BD3E900014FF0B6
:100F900000024FF00003FFF749FD0346002B03D08A
:100FA000404B4FF0FF321A60364BD3E900013B4B08
:100FB000D3E90023FFF712F902460B463849C1E98D
:100FC0000023374BD3E9000125A3D3E90023FFF722
:100FD0004BFD0346002B06D0314921A3D3E9002362
:100FE000C1E9002310E02E4BD3E900014FF00002CD
:100FF0002D4BFFF71BFD0346002B05D028494FF072
:101000000002294BC1E90023254BD3E900231046F8
:101010001946FFF733FD0346002BB8BF5B429AB277
:10102000224B1A80214B1B88092B06D8104B1B68BA
:10103000002B02D01D4B0A221A8000BFB0BD00BF9A
:101040000AD7A3703D0AB73F9A9999999999E93FB0
:101050009A9999999999A93FFCA9F1D24D62603F5B
:101060000000000000C072404C0600203C0600203A
:101070005406002090060020000000203333B33FC8
:101080000000E03F60060020580600200800002015
:10109000680600200000F03F78060020700600205F
:1010A000800600204806002000C072C08C06002088
:1010B00080B483B000AF1D4B5B78303B1C4A13609B
:1010C00002237B6016E01A4B1A6813469B001344F8
:1010D0005B001A46164B1A60144A7B6813441B784F
:1010E000A3F13002124B1B681344114A13607B6852
:1010F00001337B600D4A7B6813441B782F2B05D985
:101100000A4A7B6813441B78392BDCD9074B1B78C0
:101110002D2B04D1064B1B685B42054A136000BFB0
:101120000C37BD465DF8047B704700BFC006002049
:10113000B806002080B586B000AF78607B681B6879
:10114000344A934220D1344B1B780A2B0BD0334BBB
:101150001B785A1CD1B2314A11701A462E4B19789D
:101160002F4B99540BE0FFF7A3FF2C4B1A782D4B14
:101170001A702D4B01221A70284B00221A7001227E
:1011800025492A4805F0E7FA7B681B68284A9342FC
:101190003CD109222749284805F0DDFA4FF0FF33FA
:1011A0007B6100233B6110E0224A3B6913441B78BA
:1011B000942B05D01F4A3B6913441B78952B01D112
:1011C0003B697B613B6901333B613B69082BEBDD8C
:1011D0007B69B3F1FF3F19D00023FB6013E0154A90
:1011E0007B6913441978154AFB6813440A461A7040
:1011F0007B6901337B617B69092B01D100237B6112
:10120000FB680133FB60FB68082BE8DD00BF183783
:10121000BD4680BD00440040CC060020CD06002025
:10122000C0060020CE060020CF060020A00500202A
:1012300000480040A0060020E4050020AC06002085
:1012400080B584B000AFB96011461A460346FB73FF
:101250000B46BB811346FB80574B95221A70BB6827
:10126000B3F1FF3F08D1FB7B5B00DBB203F0060369
:10127000DAB2514B5A700EE0BB68012B0BD1FB7BED
:101280005B005BB203F006035BB243F001035BB2A9
:10129000DAB2494B5A70BB891B0A9BB2DAB2464B91
:1012A0009A70BB89DAB2444BDA70FB881B0A9BB296
:1012B000DAB2414B1A71FB88DAB23F4B5A71FB69C3
:1012C000B3F1FF3F08D13B7E5B00DBB203F00603C6
:1012D000DAB2394B9A710EE0FB69012B0BD13B7EE0
:1012E0005B005BB203F006035BB243F001035BB249
:1012F000DAB2314B9A713B8C1B0A9BB2DAB22E4B9D
:10130000DA713B8CDAB22C4B1A72BB8C1B0A9BB283
:10131000DAB2294B5A72BB8CDAB2274B9A72FB6A4B
:10132000B3F1FF3F09D197F828305B00DBB203F03F
:101330000603DAB2204BDA720FE0FB6A012B0CD104
:1013400097F828305B005BB203F006035BB243F012
:1013500001035BB2DAB2184BDA723B8E1B0A9BB206
:10136000DAB2154B1A733B8EDAB2134B5A73BB8E3B
:101370001B0A9BB2DAB2104B9A73BB8EDAB20E4BD9
:10138000DA730D4B0A221A744FF47A7311220A4948
:101390000A4805F04EF90346002B04D0012006F060
:1013A000DEF9002303E0012006F0D9F901231846F5
:1013B0001037BD4680BD00BFD00600205C05002070
:1013C00080B582B000AF0346FB71104B95221A70B6
:1013D0000E4AFB7953700D4B0A229A704FF47A73C0
:1013E00003220A490A4805F024F90346002B04D0D9
:1013F000012006F0B4F9002303E0012006F0AFF964
:10140000012318460837BD4680BD00BFF8060020FE
:1014100018050020B0B59CB000AF02F065F841F2AD
:10142000883002F0A3F8414B414A1A6000F0A0F85E
:1014300000F058FB00F036FB00F0B4FA00F0DEFAE2
:1014400000F006FB00F050F900F0FCF800F07EFA26
:1014500000F096F900F016FA364804F0BBF80421C3
:10146000354804F077F90821334804F073F9042172
:10147000324804F06FF90821304804F06BF901227A
:101480002F49304805F067F909222F492F4805F008
:1014900062F92F4B07F154041D460FCD0FC495E898
:1014A000070084E8070007F154030021184606F0FE
:1014B0000AF90346274A1360274B07F138041D46F3
:1014C0000FCD0FC495E8070084E8070007F1380343
:1014D0000021184606F0F7F80346204A1360204B17
:1014E00007F11C041D460FCD0FC495E8070084E8E2
:1014F000070007F11C030021184606F0E4F8034634
:10150000184A1360184B3C461D460FCD0FC495E892
:10151000070084E807003B460021184606F0D3F890
:101520000346124A136006F0C7F8FEE7B80600202B
:1015300019FCFFFF4004002088040020D004002094
:10154000CC060020A0050020A0060020E405002015
:10155000A88D000828060020C48D00082C06002055
:10156000E08D000830060020FC8D000834060020C5
:1015700080B594B000AF07F1200330220021184657
:1015800007F022FB07F10C0300221A605A609A60F0
:10159000DA601A610023BB60284B1B6C274A43F0BA
:1015A00080531364254B1B6C03F08053BB60BB68F6
:1015B00000237B60224B1B68214A43F48043136065
:1015C0001F4B1B6803F480437B607B6801233B62F5
:1015D0004FF480337B620223BB634FF48003FB63D1
:1015E00004233B64A8237B640223BB640423FB64C1
:1015F00007F12003184603F0D3FA0346002B01D06D
:1016000001F0D4FB0F23FB6002233B6100237B61CD
:101610004FF4A053BB614FF48053FB6107F10C03FF
:101620000521184603F034FD0346002B01D001F0DC
:10163000BDFB00BF5037BD4680BD00BF0038024033
:101640000070004080B584B000AF3B4600221A60B5
:101650005A609A60DA60214B214A1A601F4B4FF49E
:1016600080325A601D4B00229A601C4B00221A6186
:101670001A4B00221A76194B002283F82020174BB0
:101680000022DA62154B174A9A62144B0022DA6084
:10169000124B0122DA61114B002283F830200F4BEC
:1016A00001225A610D4801F085FF0346002B01D04D
:1016B00001F07CFB06233B6001237B600723BB60BA
:1016C0003B461946054802F0E7F80346002B01D0D7
:1016D00001F06CFB00BF1037BD4680BD98030020B1
:1016E000002001400100000F80B586B000AF07F177
:1016F000080300221A605A609A60DA603B460022B2
:101700001A605A601D4B4FF080421A601B4B5322E7
:101710005A601A4B00229A60184B40F2E732DA60A6
:10172000164B00221A61154B00229A61134803F0F0
:1017300001FF0346002B01D001F038FB4FF480532A
:10174000BB6007F1080319460C4804F095FA0346FC
:10175000002B01D001F02AFB00233B6000237B60BB
:101760003B461946054804F087FE0346002B01D08E
:1017700001F01CFB00BF1837BD4680BD40040020AF
:1017800080B58EB000AF07F1280300221A605A60BE
:101790009A60DA6007F1200300221A605A603B1D4C
:1017A00000221A605A609A60DA601A615A619A617E
:1017B000324B334A1A60314B47225A602F4B00227A
:1017C0009A602E4B40F2E732DA602C4B00221A610D
:1017D0002A4B00229A61294803F0ACFE0346002BF5
:1017E00001D001F0E3FA4FF48053BB6207F1280304
:1017F0001946224804F040FA0346002B01D001F0BC
:10180000D5FA1E4803F056FF0346002B01D001F025
:10181000CDFA00233B6200237B6207F120031946C7
:10182000164804F029FE0346002B01D001F0BEFA51
:1018300060237B600023BB600023FB6000237B618F
:101840003B1D042219460D4804F054F90346002BB1
:1018500001D001F0ABFA3B1D08221946074804F0FD
:1018600049F90346002B01D001F0A0FA034801F02A
:10187000A5FB00BF3837BD4680BD00BF88040020EF
:101880000004004080B58AB000AF07F120030022B9
:101890001A605A603B1D00221A605A609A60DA6032
:1018A0001A615A619A61274B274A1A60254B4722D1
:1018B0005A60244B00229A60224B40F2E732DA60F1
:1018C000204B00221A611F4B00229A611D4803F031
:1018D000F1FE0346002B01D001F068FA00233B62C1
:1018E00000237B6207F120031946164804F0C4FD6B
:1018F0000346002B01D001F059FA60237B600023DE
:10190000BB600023FB6000237B613B1D0422194662
:101910000C4804F0EFF80346002B01D001F046FA22
:101920003B1D08221946074804F0E4F80346002B43
:1019300001D001F03BFA034801F040FB00BF28371B
:10194000BD4680BDD00400200008004080B500AF37
:10195000124B134A1A60114B4FF4E1325A600F4B8D
:101960004FF480529A600D4B0022DA600B4B4FF41B
:10197000C0621A61094B0C225A61084B00229A611D
:10198000064B0022DA61054804F006FE0346002BF0
:1019900001D001F00BFA00BF80BD00BF1805002088
:1019A000004C004080B500AF124B134A1A60114B37
:1019B0004FF4E1325A600F4B4FF480529A600D4B56
:1019C0000022DA600B4B4FF480621A61094B0C2243
:1019D0005A61084B00229A61064B0022DA610548E1
:1019E00004F0DAFD0346002B01D001F0DFF900BF5F
:1019F00080BD00BF5C0500200010014080B500AF35
:101A0000114B124A1A60104B4FF4E1325A600E4BE0
:101A100000229A600C4B0022DA600B4B00221A6104
:101A2000094B0C225A61084B00229A61064B002296
:101A3000DA61054804F0B0FD0346002B01D001F047
:101A4000B5F900BF80BD00BFA005002000440040E4
:101A500080B500AF114B124A1A60104B4FF416526A
:101A60005A600E4B00229A600C4B0022DA600B4B3E
:101A700000221A61094B0C225A61084B00229A611C
:101A8000064B0022DA61054804F086FD0346002B70
:101A900001D001F08BF900BF80BD00BFE40500203C
:101AA0000048004080B582B000AF00237B600C4B43
:101AB0001B6B0B4A43F480031363094B1B6B03F44A
:101AC00080037B607B6800220521382002F03CFA0D
:101AD000382002F055FA00BF0837BD4680BD00BF70
:101AE0000038024080B58CB000AF07F11C03002223
:101AF0001A605A609A60DA601A610023BB616D4B0C
:101B00001B6B6C4A43F0800313636A4B1B6B03F03F
:101B10008003BB61BB6900237B61664B1B6B654A1D
:101B200043F001031363634B1B6B03F001037B6101
:101B30007B6900233B615F4B1B6B5E4A43F01003E4
:101B400013635C4B1B6B03F010033B613B69002389
:101B5000FB60584B1B6B574A43F002031363554B12
:101B60001B6B03F00203FB60FB680023BB60514B5F
:101B70001B6B504A43F0080313634E4B1B6B03F07F
:101B80000803BB60BB6800237B604A4B1B6B494A60
:101B900043F004031363474B1B6B03F004037B60A8
:101BA0007B6800221221444802F0AEFF00224FF46D
:101BB0000041424802F0A8FF00224FF48051404803
:101BC00002F0A2FF1223FB6101233B6200237B6230
:101BD0000023BB6207F11C031946374802F0E0FD01
:101BE000A023FB6100233B6201237B6207F11C03FE
:101BF0001946314802F0D4FD4FF40043FB61012344
:101C00003B6200237B620023BB6207F11C03194681
:101C10002A4802F0C5FD4FF48053FB6101233B626B
:101C200000237B620023BB6207F11C031946244892
:101C300002F0B6FD4FF40053FB6100233B62012329
:101C40007B6207F11C0319461D4802F0A9FD4FF401
:101C50000043FB6100233B6200237B6207F11C030E
:101C60001946184802F09CFD4023FB614FF488138D
:101C70003B6200237B6207F11C031946124802F005
:101C80008FFD4FF48053FB6100233B6201237B6295
:101C900007F11C0319460C4802F082FD00220521C1
:101CA000172002F051F9172002F06AF900BF30370F
:101CB000BD4680BD003802400000024000100240D6
:101CC00000040240000C02400008024080B588B0C9
:101CD00008AF204B14221A601F4B02221A6040F6F4
:101CE000B83005F03CFD1B4B08221A6020211B4830
:101CF00002F0F2FE0346002B26D1164B00221A609A
:101D00004FF47A7005F02BFD134B00221A60144B30
:101D100000221A604FF416730793002306930123E1
:101D20000593002304934FF4167303930023029347
:101D300001230193002300934FF416730022012125
:101D40000020FFF77DFA03E0012005F008FDCDE754
:101D5000BD4680BD44060020400600200000024031
:101D60008806002080B500AF244B9B78802B0BD1D8
:101D7000234B1B78002B07D1224B1B680233214ACF
:101D800013601F4B01221A701C4B9B78202B0BD128
:101D90001B4B1B78002B07D11A4B1B68023B194ABF
:101DA0001360174B01221A70144B9B78002B02D141
:101DB000134B00221A70134B1B68134A1360134B0A
:101DC0001B88B3F52F7F13D9104B1B8840F6B73211
:101DD00093420DD80E4B00221A604FF47A7005F032
:101DE000BEFC0C4B00221A600B4B00221A6003E071
:101DF000012005F0B4FCB7E780BD00BFAC060020B1
:101E0000FB0600201000002038060020E406002019
:101E100044060020400600208806002080B500AF60
:101E20004FF480510A4802F057FE0346002BF7D1C9
:101E3000084B00221A604FF47A7005F090FC064BB4
:101E400000221A60054B00221A6000BF80BD00BF4F
:101E500000080240440600204006002088060020BA
:101E600080B582B000AF0346FB80FB88402B12D1C7
:101E70004FF400410A4802F02FFE0346002B05D123
:101E8000084B1B680133074A136004E0054B1B68CD
:101E9000013B044A136000BF0837BD4680BD00BF48
:101EA000000C02405C070020B0B500AFA44B1A68DC
:101EB000A44B1B68D31A1846FEF7DCFA02460B4601
:101EC000A149C1E90023A14BD3E900019E4BD3E90D
:101ED0000023FEF739FB02460B469D49C1E900236A
:101EE0009C4BD3E90001984BD3E90023FEF72CFB70
:101EF00002460B4610461946974BD3E90023FEF7DE
:101F000023FB02460B4610461946944BD3E90023A7
:101F1000FEF764F902460B469149C1E90023914B53
:101F20001B681846FEF7A6FA8D4BD3E90023FEF78F
:101F30007DFD0346002B0AD08A4B1B681846FEF72E
:101F400099FA02460B468649C1E9002316E0864B02
:101F50001B681846FEF78EFA814BD3E90023FEF783
:101F600083FD0346002B09D07F4B1B681846FEF704
:101F700081FA02460B467A49C1E90023724BD3E944
:101F800000017A4BD3E90023FEF726F902460B46FF
:101F900010461946764BD3E90023FEF7D5FA0246E0
:101FA0000B46104619466C4BD3E90023FEF7F6FBAF
:101FB00002460B466F49C1E900236F4BD3E900236A
:101FC0004FF000006D49FEF707F902460B46104638
:101FD00019466B4BD3E90023FEF7B6FA02460B46CF
:101FE00014461D46674BD3E90001624BD3E9002339
:101FF000FEF7AAFA02460B4620462946FEF7EEF8FF
:1020000002460B466049C1E900234F4BD3E9002348
:102010005649C1E90023524BD3E900234F49C1E996
:102020000023594BD3E900235549C1E90023484B0C
:10203000D3E90001544BD3E90023FEF7CFF8024661
:102040000B4610461946464BD3E90023FEF7C6F867
:1020500002460B464D49C1E900234D4B1B6818460B
:10206000FEF708FA494BD3E90023FEF7DFFC0346ED
:10207000002B0AD0464B1B681846FEF7FBF90246B8
:102080000B464249C1E9002316E0424B1B68184643
:10209000FEF7F0F93D4BD3E90023FEF7E5FC0346DC
:1020A000002B09D03B4B1B681846FEF7E3F90246AC
:1020B0000B463649C1E90023344BD3E900014FF008
:1020C00000024FF00003FEF7CFFC0346002B04D0C4
:1020D000314B4FF0FF321A6012E02C4BD3E9000174
:1020E0004FF000024FF00003FEF7A0FC0346002B68
:1020F00003D0294B01221A6002E0274B00221A600C
:10210000224BD3E9002310461946FEF7B7FC0346DD
:10211000002BB8BF5B42214A1360204B1A68204B4A
:102120001B689A4242DA084BD3E900014FF00002E3
:102130004FF00003FEF770FC0346002B32D035E071
:10214000100700205C07002000070020200000206E
:102150001807002028000020180000202807002071
:1021600020070020380000203C0000200807002045
:102170003000002030070020900600200000F03FD3
:1021800040070020400000203807002048070020BA
:10219000480000204C000020500700205407002079
:1021A00050000020024B1B68024A136000BFB0BD04
:1021B000500000205407002080B483B000AF786046
:1021C0003960074B1B687A689A63054B1B683A684D
:1021D000DA6300BF0C37BD465DF8047B704700BF73
:1021E000D004002080B582B000AF786039607B6891
:1021F000B3F1FF3F04D100213868FFF7DDFF0BE0AA
:102200007B68012B04D139680020FFF7D5FF03E07C
:1022100000210020FFF7D0FF00BF0837BD4680BD7A
:1022200080B483B000AF786039607B68B3F1FF3F62
:1022300008D1114B1B683A68DA630F4B1B68002208
:102240009A6313E07B68012B08D10B4B1B680022BB
:10225000DA63094B1B683A689A6307E0064B1B6810
:102260000022DA63044B1B6800229A6300BF0C371C
:10227000BD465DF8047B70478804002080B582B0BD
:1022800000AF00237B6044E0274B1A68274B1B6894
:102290009A420CDA00224FF40041254802F034FC47
:1022A000224B1A68204B1B68D31A7B6011E01E4B2F
:1022B0001A681E4B1B689A420BDD01224FF4004145
:1022C0001B4802F021FC184B1A68184B1B68D31AE4
:1022D0007B6000233B6014E001224FF480511548DD
:1022E00002F012FC012001F041F900224FF480516C
:1022F000104802F009FC012001F038F93B68013375
:102300003B603A687B689A42E6DB084B1B68064AEA
:102310001360054B1A68054B1B689A42B4D100BF85
:1023200000BF0837BD4680BD6C0700207007002045
:10233000001002400004024080B500AFC821012017
:10234000FFF76EFF80210B4802F0C6FB0346002B0F
:10235000F8D100210120FFF763FF642005F0FFF9A9
:10236000054B40F2B6321A60044B01221A7000BFCE
:1023700000BF80BD000002407007002074070020ED
:1023800080B500AFC8214FF0FF30FFF749FF4FF491
:102390000051084802F0A0FB0346012BF7D10021B1
:1023A0000120FFF73DFF044B00221A6000BF00BF71
:1023B00080BD00BF000402406007002080B500AF70
:1023C000FFF7BAFF094B1B78002B04D0FFF756FF2D
:1023D000064B00221A70064B00221A60FFF74EFFD0
:1023E000044B01221A7000BF80BD00BF740700209B
:1023F000700700207507002080B58AB008AF7860AC
:102400004FF48051984802F067FB03461A46974BF9
:102410001A70974B5B78802B0FD1954B9B78002BD4
:102420000BD1FFF7CBFF934B1B78002B05D001207E
:10243000FEF7C6FF8F4B00221A708D4B5B78402B46
:1024400009D18B4B9B78002B05D18B4B01221A6055
:102450008A4B02221A60864B5B78202B09D1844B71
:102460009B78002B05D1844B01221A60834B0322F9
:102470001A607F4BDB79802B40F02A81804B1B68F0
:10248000002B40F025817F4B00221A707E4B1B7879
:10249000002B40F0AA807D4B00221A607C4B00226A
:1024A0001A604FF496730793002306930123059354
:1024B000002304934FF496730393002302930123A4
:1024C0000193002300934FF4967300220121002012
:1024D000FEF7B6FE4FF47A7005F041F96D4B052218
:1024E0001A606A4B01221A606B4B50221A6041F24B
:1024F000707005F034F9684B00221A604FF4FA70DE
:1025000005F02DF9614B00221A60614B00221A6020
:10251000624B1B68C3F196039BB25B0099B25F4BA1
:102520001B68C3F196039BB25B009BB25B4A1268C7
:10253000963292B2520092B2079200220692012283
:102540000592002204920393002302930123019336
:10255000002300930B46002201210020FEF770FEAD
:102560004FF47A7005F0FBF84FF49673079300234D
:10257000069301230593002304934FF4967303936A
:102580000023029301230193002300934FF49673D9
:10259000002201210020FEF753FE4FF4FA6005F0FF
:1025A000DEF84FF416730793002306930123059377
:1025B000002304934FF4C873039300230293012371
:1025C000019300230093C823002201210020FEF77D
:1025D00037FE4FF4FA6005F0C2F8314B6FF01D0280
:1025E0001A602B4B01221A6069E0274B1B78012BE4
:1025F00005D1FFF7C5FE2B4B2B4A1A605FE0224B3B
:102600001B78022B52D1214B00221A60204B002252
:102610001A604FF4967307930023069301230593E2
:10262000002304934FF49673039300230293012332
:102630000193002300934FF49673002201210020A0
:10264000FEF7FEFD4FF47A7005F089F8114B6FF03C
:102650001D021A600D4B01221A600F4B32221A60C4
:10266000FFF7DCFB2BE000BF00080240580700200A
:10267000AC0600207507002060070020FC06002043
:10268000BC060020760700207707002040060020C7
:10269000880600203806002044060020500600204E
:1026A0004C06002010070020DAFDFFFFAA4B1B7824
:1026B000032B04D1A94B00221A60FFF73DFEA64B65
:1026C0001B780133DAB2A44B1A70A54B01221A60B1
:1026D000A44BDB79402B61D1A14B1B68002B5DD152
:1026E000A14B01221A70A14B00221A60A04B0022BC
:1026F0001A604FF416730793002306930123059382
:10270000002304934FF4C8730393002302934FF004
:10271000FF33019300230093C823002201210020EE
:10272000FEF78EFD4FF4FA6005F019F8914B6FF04B
:1027300059021A608E4B01221A6042F2107005F0A5
:102740000EF88B4B00221A60642307930023069334
:10275000012305930023049364230393002302932E
:102760000123019300230093642300220121002010
:10277000FEF766FD4FF4FA6004F0F1FF7E4B6FF058
:1027800059021A60FFF7A2FA7A4B6FF059021A60E9
:10279000774B01221A60724B01221A60714BDB7970
:1027A000202B59D16E4B1B68002B55D16E4B02224A
:1027B0001A706E4B00221A606D4B00221A606E4B2D
:1027C0006FF059021A604FF41673079300230693B3
:1027D00001230593002304934FF4167303930023FE
:1027E000029301230193002300934FF416730022F8
:1027F00001210020FEF724FD4FF4FA6004F0AFFF42
:102800005E4B1B685C4A13605D4B14221A60574B89
:1028100003221A604FF47A7004F0A1FFFFF7A2FAC6
:102820004FF41673079300230693012305930023A7
:1028300004934FF41673039300230293012301932F
:10284000002300934FF41673002201210020FEF7AD
:10285000F7FC434B01221A60424BDB79102B3AD133
:102860003F4B1B68002B36D1404B00221A60404B77
:1028700000221A604FF41673079300230693012376
:102880000593002304934FF41673039300230293DC
:1028900001230193002300934FF4167300220121BA
:1028A0000020FEF7CDFC4FF47A7004F058FF334B54
:1028B0001B68314A1360324B0A221A602B4B0322E9
:1028C0001A604FF4487004F04AFF2D4B00221A6042
:1028D000234B01221A60234BDB79082B09D1204BB3
:1028E0001B68002B05D1274B02221A601C4B0122CA
:1028F0001A601C4BDB79042B53D1194B1B68002B3E
:102900004FD11A4B00221A60194B00221A604FF463
:102910001673079300230693012305930023049362
:102920004FF41673039300230293012301930023B2
:1029300000934FF41673002201210020FEF780FC63
:102940004FF47A7004F00BFF0C4B1B680A4A1360BB
:102950000B4B0A221A6017E07707002010070020AF
:10296000BC060020AC0600207607002040060020B0
:10297000880600204C0600203806002010000020A9
:1029800044060020600700200B4B04221A604FF41D
:10299000487004F0E4FE094B00221A60084B012243
:1029A0001A60084BDB79002B02D1054B00221A601C
:1029B000012004F0D4FE23E5400600204406002058
:1029C000BC060020AC06002080B582B000AF786065
:1029D0000D4B1B680D4A93420AD00D4B01225A60E1
:1029E00002210C4802F0A9F8322004F0B8FEEFE70B
:1029F000074B00225A600221064802F09EF84FF46D
:102A0000FA7004F0ACFEE3E7B806002019FCFFFF03
:102A1000980600200000024080B582B000AF7860C8
:102A20008021294802F058F803461A46274B1A60BD
:102A30004FF40051264802F04FF803461A46254B42
:102A40001A60254B1B68012B02D1FFF775FC10E0C3
:102A5000214B1B68022B02D1FFF792FC09E01E4BB1
:102A60001B68002B05D100210020FFF7BBFBFFF7FF
:102A700005FC194B1B68002B22D1184B1B68002B3F
:102A80001ED1174B1B68012B06D10120FEF798FCC5
:102A9000134B00221A6009E0114B1B68022B05D171
:102AA0000220FEF78DFC0E4B00221A600C4B1B68B7
:102AB000032B05D10320FEF783FC094B00221A608B
:102AC000642004F04CFEABE70000024064070020E5
:102AD0000004024068070020600700206C07002007
:102AE000FC060020F0B58BB008AF78600122924957
:102AF000924800F0A3FD924B1B68B3F57A7F02DD8C
:102B00008F4B00221A608F4B1B68012B3FD18E4BDD
:102B10001B689CB28D4B1B689BB21A469B00D31A54
:102B20009BB203F596739DB2874B1B689BB2874A95
:102B3000126892B2114692008A1A92B202F5967207
:102B400092B28149096889B28048006880B206461D
:102B50007600304480B200F5967080B207900691FE
:102B60004FF0FF31059101210491039202934FF040
:102B7000FF330193012300932B4622464FF0FF3190
:102B80000120FEF75DFB012004F0E9FD02E00120D9
:102B900004F0E5FD6B4B1B68042B35D16A4B1B68B9
:102BA00098B26A4B1B689BB21A46520013445B00F2
:102BB0009BB203F516739CB2634B1B689BB2634ACE
:102BC000126892B2114692008A1A520092B202F52D
:102BD000167292B25C49096889B24FF4167507956E
:102BE0000691012105910121049103920293012391
:102BF0000193012300932346024601210120FEF7A1
:102C00001FFB012004F0ABFD514B1B68012B21D1B0
:102C1000504B1B685C42504B1D884E4B1B684E4A04
:102C200012884C49096849424B4800884FF416768F
:102C3000079606900591022104914FF4C871039103
:102C40000292019302230093C8232A4621460220C0
:102C5000FEF7F6FA3B4B1B68022B2DD13A4B1B6853
:102C60009CB23A4B1B689BB264339DB2364B1B68D7
:102C70009BB2364A126892B2643292B23249096803
:102C800089B23248006880B2C0F1640080B2079017
:102C900006910121059101210491039202930123E0
:102CA0000193012300932B46224601210120FEF7C8
:102CB000C7FA012004F053FD224B1B68032B7FF45D
:102CC00015AF214B1B6898B2204B1B689BB21A466C
:102CD0009B00D31A5B009BB203F516739CB21A4B90
:102CE0001B689BB2194A126892B2114649000A4405
:102CF000520092B202F5167292B21349096889B273
:102D00004FF41675079506914FF0FF31059101219B
:102D10000491039202934FF0FF3301930123009338
:102D2000234602464FF0FF310120FEF789FA0120C9
:102D300004F015FDDAE600BFE40600209803002049
:102D40001007002040060020440600205006002006
:102D500088060020480600208C06002080B582B03E
:102D600000AF78607B681B680B4A934201D100F08A
:102D7000DDFB0A4B1B680A4A13600A4B1A68084BB2
:102D80001B68D31A084A1360FEF73EF8FFF78CF869
:102D900000BF0837BD4680BD00200040B8060020B7
:102DA0003C060020380600205006002080B400AF0A
:102DB00072B600BFFEE7000080B582B000AF00230E
:102DC0007B60124B5B6C114A43F4804353640F4B9E
:102DD0005B6C03F480437B607B6800233B600B4BA0
:102DE0001B6C0A4A43F080531364084B1B6C03F0BE
:102DF00080533B603B6800220F216FF0010001F01F
:102E0000A3F800BF0837BD4680BD00BF00380240B0
:102E100080B58AB000AF786007F1140300221A6011
:102E20005A609A60DA601A617B681B682F4A934285
:102E300057D100233B612E4B5B6C2D4A43F48073CA
:102E400053642B4B5B6C03F480733B613B69002341
:102E5000FB60274B1B6B264A43F001031363244B93
:102E60001B6B03F00103FB60FB6840237B610323C2
:102E7000BB610023FB6107F1140319461D4801F0F3
:102E80008FFC1D4B1D4A1A601B4B00225A601A4BC7
:102E900000229A60184B0022DA60174B4FF48062D0
:102EA0001A61154B4FF400625A61134B4FF40052F4
:102EB0009A61114B4FF48072DA610F4B00221A6253
:102EC0000D4B00225A620C4801F068F80346002BB3
:102ED00001D0FFF76BFF7B68074A9A63064A7B685D
:102EE000936300BF2837BD4680BD00BF002001406E
:102EF0000038024000000240E0030020106402405D
:102F000080B584B000AF78607B681B68B3F1804FF8
:102F100016D10023FB60164B1B6C154A43F00103CE
:102F20001364134B1B6C03F00103FB60FB6800226E
:102F300005211C2001F008F81C2001F021F812E006
:102F40007B681B680B4A93420DD10023BB60084B82
:102F50001B6C074A43F002031364054B1B6C03F020
:102F60000203BB60BB6800BF1037BD4680BD00BF19
:102F7000003802400004004080B485B000AF7860A3
:102F80007B681B680B4A93420DD10023FB600A4B00
:102F90001B6C094A43F004031364074B1B6C03F0DA
:102FA0000403FB60FB6800BF1437BD465DF8047B7B
:102FB000704700BF000800400038024080B58AB06A
:102FC00000AF786007F1140300221A605A609A601B
:102FD000DA601A617B681B68254A93421FD100237F
:102FE0003B61244B1B6B234A43F004031363214BC7
:102FF0001B6B03F004033B613B694FF4C0737B61BF
:103000000223BB610023FB6100233B6202237B623E
:1030100007F114031946184801F0C2FB23E07B684E
:103020001B68164A93421ED10023FB60114B1B6B99
:10303000104A43F0080313630E4B1B6B03F00803A5
:10304000FB60FB684FF4C0437B610223BB6100233C
:10305000FB6100233B6202237B6207F114031946E4
:10306000074801F09DFB00BF2837BD4680BD00BF6B
:103070000004004000380240000802400008004000
:10308000000C024080B590B000AF786007F12C03CF
:1030900000221A605A609A60DA601A617B681B68C5
:1030A000804A93424BD10023BB627F4B1B6C7E4A0C
:1030B00043F4002313647C4B1B6C03F40023BB62BA
:1030C000BB6A00237B62784B1B6B774A43F001039A
:1030D0001363754B1B6B03F001037B627B6A002358
:1030E0003B62714B1B6B704A43F0040313636E4BDE
:1030F0001B6B03F004033B623B6A0123FB62022368
:103100003B6300237B630323BB630823FB6307F15B
:103110002C031946654801F043FB4FF40063FB6242
:1031200002233B6300237B630323BB630823FB630E
:1031300007F12C0319465E4801F032FBAEE07B68D4
:103140001B685C4A934235D10023FB61564B5B6C94
:10315000554A43F010035364534B5B6C03F0100368
:10316000FB61FB690023BB614F4B1B6B4E4A43F075
:10317000010313634C4B1B6B03F00103BB61BB6981
:103180004FF4C063FB6202233B6300237B63032392
:10319000BB630723FB6307F12C031946434801F087
:1031A000FFFA00220521252000F0CEFE252000F0A8
:1031B000E7FE73E07B681B683F4A934234D10023EB
:1031C0007B61394B1B6C384A43F400331364364B34
:1031D0001B6C03F400337B617B6900233B61324B42
:1031E0001B6B314A43F0010313632F4B1B6B03F03E
:1031F00001033B613B690C23FB6202233B63002319
:103200007B630323BB630723FB6307F12C0319468E
:10321000264801F0C5FA00220521262000F094FE80
:10322000262000F0ADFE39E07B681B68234A9342FC
:1032300034D10023FB601C4B1B6C1B4A43F48023DE
:103240001364194B1B6C03F48023FB60FB680023A1
:10325000BB60154B1B6B144A43F002031363124B04
:103260001B6B03F00203BB60BB684FF44063FB625F
:1032700002233B6300237B630323BB630723FB63BE
:1032800007F12C0319460E4801F08AFA00220521A5
:10329000272000F059FE272000F072FE00BF4037C3
:1032A000BD4680BD004C0040003802400000024096
:1032B0000008024000100140004400400048004067
:1032C0000004024080B58EB000AF78600023FB623E
:1032D0000023BB620023FB60334B1B6C324A43F478
:1032E00080731364304B1B6C03F48073FB60FB68CA
:1032F00007F1100207F114031146184602F0E8F82E
:103300003B6AFB62FB6A002B03D102F0B9F87863D9
:1033100004E002F0B5F803465B007B637B6B234A55
:10332000A2FB03239B0C013BBB62214B214A1A6089
:103330001F4B40F2E732DA601D4ABB6A53601C4BF8
:1033400000221A611A4B00229A60194B00229A61DE
:10335000174802F0EFF8034687F8333097F8333018
:10336000002B1BD1124802F035F9034687F83330A1
:1033700097F83330002B11D12D2000F001FE7B682F
:103380000F2B08D8002279682D2000F0DDFD0A4AB5
:103390007B68136002E0012387F8333097F83330FD
:1033A00018463837BD4680BD0038024083DE1B43D7
:1033B00078070020002000405800002080B400AFB3
:1033C000FEE780B400AFFEE780B400AFFEE780B454
:1033D00000AFFEE780B400AFFEE780B400AF00BFEF
:1033E000BD465DF8047B704780B500AF402001F01A
:1033F000BFFB00BF80BD000080B500AF024802F0F7
:1034000071FA00BF80BD00BF4004002080B500AF4E
:10341000024803F0D1F900BF80BD00BF5C05002069
:1034200080B500AF024803F0C7F900BF80BD00BF00
:10343000A005002080B500AF024803F0BDF900BF31
:1034400080BD00BFE405002080B500AF024802F057
:1034500049FA00BF80BD00BF7807002080B500AFEB
:10346000024800F033FF00BF80BD00BFE003002032
:1034700080B400AF064BD3F88830054A43F470039C
:10348000C2F8883000BFBD465DF8047B704700BFBE
:1034900000ED00E0DFF834D00D480E490E4A00235D
:1034A00002E0D458C4500433C4188C42F9D30B4AF8
:1034B0000B4C002301E013600432A242FBD3FFF760
:1034C000D7FF05F05BFBFDF7A5FF7047000002206A
:1034D00000000020C8000020B08E0008C8000020B6
:1034E00020450020FEE7000080B500AF0E4B1B68B2
:1034F0000D4A43F4007313600B4B1B680A4A43F4F4
:1035000080631360084B1B68074A43F480731360A1
:10351000032000F00EFD0F20FFF7D4FEFFF74CFC58
:103520000023184680BD00BF003C024080B400AFBD
:10353000064B1B781A46064B1B681344044A13605B
:1035400000BFBD465DF8047B704700BF5C000020F3
:10355000C007002080B400AF034B1B681846BD466F
:103560005DF8047B704700BFC007002080B584B0C1
:1035700000AF7860FFF7EEFFB8607B68FB60FB6828
:10358000B3F1FF3F05D00A4B1B781A46FB68134482
:10359000FB6000BFFFF7DEFF0246BB68D31AFA6884
:1035A0009A42F7D800BF00BF1037BD4680BD00BFAC
:1035B0005C00002080B584B000AF78600023FB730E
:1035C0007B68002B01D1012333E07B681B6C002B4F
:1035D00009D17868FFF71CFC7B6800225A647B687D
:1035E000002283F83C207B681B6C03F01003002B47
:1035F00018D17B681B6C23F4885323F0020343F03B
:1036000002027B681A64786800F068FA7B6800221E
:103610005A647B681B6C23F0030343F001027B6850
:103620001A6401E00123FB737B68002283F83C20CD
:10363000FB7B18461037BD4680BD000080B586B0C4
:1036400000AFF860B9607A6000233B61FB6893F8D3
:103650003C30012B01D10223E9E0FB68012283F811
:103660003C20FB681B689B6803F00103012B18D00A
:10367000FB681B689A68FB681B6842F001029A604D
:103680006D4B1B686D4AA2FB03239A0C13465B002B
:1036900013443B6102E03B69013B3B613B69002B0A
:1036A000F9D1FB681B689B6803F48073B3F5807FD6
:1036B00007D1FB681B689A68FB681B6822F480725C
:1036C0009A60FB681B689B6803F00103012B40F0C4
:1036D000A180FB681B6C23F4E06323F0010343F437
:1036E0008072FB681A64FB681B685B6803F4806384
:1036F000002B07D0FB681B6C23F4405343F480522B
:10370000FB681A64FB681B6C03F48053B3F5805F9D
:1037100006D1FB685B6C23F00602FB685A6402E08A
:10372000FB6800225A64FB68002283F83C20444B6B
:103730007B61FB689B6B434ADA63FB689B6B424A85
:103740001A64FB689B6B414ADA64FB681B686FF084
:1037500022021A60FB681B685A68FB681B6842F00B
:1037600080625A60FB681B689A68FB681B6842F4B9
:1037700080729A60FB68986BFB681B684C33194633
:10378000BA687B6800F0B8FC7B695B6803F01F03D4
:10379000002B2AD1FB681B682D4A934215D0FB6889
:1037A0001B682C4A934205D1254B5B6803F01F032D
:1037B000002B0AD0FB681B68274A934236D1204B66
:1037C0005B6803F01003002B30D1FB681B689B681B
:1037D00003F04053002B29D1FB681B689A68FB68F3
:1037E0001B6842F080429A6020E0FB681B68184A20
:1037F00093421BD1FB681B689B6803F04053002B6E
:1038000014D1FB681B689A68FB681B6842F0804211
:103810009A600BE0FB681B6C43F01002FB681A64B3
:10382000FB685B6C43F00102FB685A640023184696
:103830001837BD4680BD00BF5400002083DE1B4307
:1038400000230140D53C00088F3D0008AB3D000837
:1038500000200140002101400022014080B483B0DB
:1038600000AF786000BF0C37BD465DF8047B704741
:1038700080B483B000AF786000BF0C37BD465DF800
:10388000047B704780B483B000AF786000BF0C3712
:10389000BD465DF8047B704780B485B000AF7860AA
:1038A00039600023BB607B6893F83C30012B01D169
:1038B000022305E17B68012283F83C203B681B68FA
:1038C000092B25D97B681B68D9683B681B689BB2AC
:1038D0001A4613465B0013441E3B072202FA03F309
:1038E000DA437B681B680A40DA607B681B68D9682A
:1038F0003B689A683B681B689BB2184603465B00AE
:1039000003441E3B9A407B681B680A43DA6022E04E
:103910007B681B6819693B681B689BB21A46134693
:103920005B001344072202FA03F3DA437B681B6847
:103930000A401A617B681B6819693B689A683B6892
:103940001B689BB2184603465B0003449A407B68A1
:103950001B680A431A613B685B68062B24D87B68A6
:103960001B68596B3B685A6813469B001344053B20
:103970001F2202FA03F3DA437B681B680A405A638A
:103980007B681B68596B3B681B689BB218463B6899
:103990005A6813469B001344053B00FA03F27B6808
:1039A0001B680A435A634CE03B685B680C2B24D8C5
:1039B0007B681B68196B3B685A6813469B0013446D
:1039C000233B1F2202FA03F3DA437B681B680A4099
:1039D0001A637B681B68196B3B681B689BB21846AF
:1039E0003B685A6813469B001344233B00FA03F2DA
:1039F0007B681B680A431A6323E07B681B68D96AEB
:103A00003B685A6813469B001344413B1F2202FA4D
:103A100003F3DA437B681B680A40DA627B681B6841
:103A2000D96A3B681B689BB218463B685A681346C4
:103A30009B001344413B00FA03F27B681B680A4376
:103A4000DA62224BFB607B681B68214A934209D1F2
:103A50003B681B68122B05D1FB685B6843F480024E
:103A6000FB685A607B681B68194A934223D13B6804
:103A70001B68102B03D03B681B68112B1BD1FB6804
:103A80005B6843F40002FB685A603B681B68102BBC
:103A900011D1104B1B68104AA2FB03239A0C13464A
:103AA0009B0013445B00BB6002E0BB68013BBB6052
:103AB000BB68002BF9D17B68002283F83C200023EF
:103AC00018461437BD465DF8047B7047002301405B
:103AD000002001405400002083DE1B4380B485B0E9
:103AE00000AF7860794BFB60FB685B6823F4403281
:103AF000FB685A60FB685A687B685B681A43FB681E
:103B00005A607B681B685A687B681B6822F4807265
:103B10005A607B681B6859687B681B691A027B685E
:103B20001B680A435A607B681B685A687B681B687D
:103B300022F040725A607B681B6859687B689A68FB
:103B40007B681B680A435A607B681B689A687B68BD
:103B50001B6822F400629A607B681B6899687B6826
:103B6000DA687B681B680A439A607B689B6A584ADC
:103B7000934222D07B681B689A687B681B6822F09E
:103B800070629A607B681B6899687B689A6A7B6838
:103B90001B680A439A607B681B689A687B681B688D
:103BA00022F040529A607B681B6899687B68DA6AE9
:103BB0007B681B680A439A600FE07B681B689A6801
:103BC0007B681B6822F070629A607B681B689A6849
:103BD0007B681B6822F040529A607B681B689A6879
:103BE0007B681B6822F002029A607B681B689968F8
:103BF0007B681B7E5A007B681B680A439A607B685F
:103C000093F82030002B1BD07B681B685A687B68B8
:103C10001B6842F400625A607B681B685A687B68C4
:103C20001B6822F460425A607B681B6859687B6895
:103C30005B6A013B5A037B681B680A435A6007E0D2
:103C40007B681B685A687B681B6822F400625A60B4
:103C50007B681B68DA6A7B681B6822F47002DA6290
:103C60007B681B68D96A7B68DB69013B1A057B6846
:103C70001B680A43DA627B681B689A687B681B686A
:103C800022F400729A607B681B6899687B6893F8DD
:103C900030305A027B681B680A439A607B681B6855
:103CA0009A687B681B6822F480629A607B681B6854
:103CB00099687B685B699A027B681B680A439A6013
:103CC00000BF1437BD465DF8047B704700230140F8
:103CD0000100000F80B584B000AF78607B689B6BFB
:103CE000FB60FB681B6C03F05003002B3CD1FB68AE
:103CF0001B6C43F40072FB681A64FB681B689B68CA
:103D000003F04053002B2BD1FB681B7E002B27D1E7
:103D1000FB681B68DB6A03F47003002B06D0FB68AA
:103D20001B689B6803F48063002B19D1FB681B6838
:103D30005A68FB681B6822F020025A60FB681B6C03
:103D400023F48072FB681A64FB681B6C03F48053D5
:103D5000002B05D1FB681B6C43F00102FB681A6461
:103D6000F868FFF77BFD0EE0FB681B6C03F01003A7
:103D7000002B03D0F868FFF785FD04E0FB689B6B20
:103D8000DB6C7868984700BF1037BD4680BD80B5B2
:103D900084B000AF78607B689B6BFB60F868FFF7CE
:103DA00067FD00BF1037BD4680BD80B584B000AF51
:103DB00078607B689B6BFB60FB6840221A64FB6841
:103DC0005B6C43F00402FB685A64F868FFF75AFD25
:103DD00000BF1037BD4680BD80B485B000AF7860AD
:103DE0007B6803F00703FB600C4BDB68BB60BA68C1
:103DF0004FF6FF031340BB60FB681A02BB68134316
:103E000043F0BF6343F40033BB60044ABB68D36034
:103E100000BF1437BD465DF8047B704700ED00E03D
:103E200080B400AF044BDB681B0A03F0070318469D
:103E3000BD465DF8047B704700ED00E080B483B0C0
:103E400000AF0346FB7197F90730002B0BDBFB79C2
:103E500003F01F02074997F907305B09012000FAB8
:103E600002F241F8232000BF0C37BD465DF8047B09
:103E7000704700BF00E100E080B483B000AF0346AC
:103E80003960FB7197F90730002B0ADB3B68DAB227
:103E90000C4997F907301201D2B20B4483F8002382
:103EA0000AE03B68DAB20849FB7903F00F03043BF0
:103EB0001201D2B20B441A7600BF0C37BD465DF832
:103EC000047B704700E100E000ED00E080B489B0C1
:103ED00000AFF860B9607A60FB6803F00703FB612C
:103EE000FB69C3F10703042B28BF0423BB61FB69F3
:103EF0000433062B02D9FB69033B00E000237B61FE
:103F00004FF0FF32BB6902FA03F3DA43BB681A4091
:103F10007B699A404FF0FF317B6901FA03F3D94383
:103F20007B680B40134318462437BD465DF8047B7D
:103F3000704780B582B000AF78607868FFF74CFFBB
:103F400000BF0837BD4680BD80B586B000AF0346D0
:103F5000B9607A60FB7300237B61FFF761FF7861D2
:103F60007A68B9687869FFF7B1FF024697F90F30B0
:103F700011461846FFF780FF00BF1837BD4680BDC9
:103F800080B582B000AF0346FB7197F90730184641
:103F9000FFF754FF00BF0837BD4680BD80B586B02F
:103FA00000AF786000237B61FFF7D4FA38617B684B
:103FB000002B01D1012399E07B68022283F8352090
:103FC0007B68002283F834207B681B681A687B6852
:103FD0001B6822F001021A600FE0FFF7BBFA0246ED
:103FE0003B69D31A052B08D97B6820225A657B6868
:103FF000032283F83520032378E07B681B681B6865
:1040000003F00103002BE8D17B681B681B687B6110
:104010007A69384B13407B617B685A687B689B6880
:104020001A437B68DB681A437B681B691A437B6809
:104030005B691A437B689B691A437B68DB691A4397
:104040007B681B6A13437A6913437B617B685B6AF5
:10405000042B07D17B68DA6A7B681B6B13437A6990
:1040600013437B617B681B687A691A607B681B68F5
:104070005B697B617B6923F007037B617B685B6A1B
:104080007A6913437B617B685B6A042B17D17B6879
:104090009B6A7A6913437B617B68DB6A002B0ED0D5
:1040A000786800F001FB0346002B08D07B684022B3
:1040B0005A657B68012283F83520012316E07B686E
:1040C0001B687A695A61786800F0B8FA0346FB60A9
:1040D0007B68DB6D3F229A40FB689A607B68002218
:1040E0005A657B68012283F835200023184618376B
:1040F000BD4680BD3F8010F080B586B000AFF8604F
:10410000B9607A603B600023FB75FB689B6D3B6187
:10411000FB6893F83430012B01D1022340E0FB68A7
:10412000012283F83420FB6893F83530DBB2012B91
:104130002FD1FB68022283F83520FB6800225A65E4
:104140003B687A68B968F86800F04AFAFB68DB6D8A
:104150003F229A403B699A60FB681B681A68FB68BB
:104160001B6842F016021A60FB681B6C002B07D01C
:10417000FB681B681A68FB681B6842F008021A603B
:10418000FB681B681A68FB681B6842F001021A6032
:1041900005E0FB68002283F834200223FB75FB7DD9
:1041A00018461837BD4680BD80B584B000AF786032
:1041B0007B689B6DFB60FFF7CDF9B8607B6893F877
:1041C0003530DBB2022B08D07B6880225A657B68D1
:1041D000002283F83420012352E07B681B681A68B0
:1041E0007B681B6822F016021A607B681B685A699C
:1041F0007B681B6822F080025A617B681B6C002B75
:1042000003D17B689B6C002B07D07B681B681A6806
:104210007B681B6822F008021A607B681B681A68BA
:104220007B681B6822F001021A6013E0FFF792F925
:104230000246BB68D31A052B0CD97B6820225A652D
:104240007B68032283F835207B68002283F83420C2
:10425000032315E07B681B681B6803F00103002B38
:10426000E4D17B68DB6D3F229A40FB689A607B68F3
:10427000012283F835207B68002283F83420002354
:1042800018461037BD4680BD80B483B000AF78605B
:104290007B6893F83530DBB2022B04D07B68802238
:1042A0005A6501230CE07B68052283F835207B6882
:1042B0001B681A687B681B6822F001021A600023E1
:1042C00018460C37BD465DF8047B704780B586B054
:1042D00000AF78600023BB608E4B1B688E4AA2FB48
:1042E00003239B0A7B617B689B6D3B613B691B6879
:1042F000FB607B68DB6D08229A40FB681340002B53
:104300001AD07B681B681B6803F00403002B13D0D2
:104310007B681B681A687B681B6822F004021A60BD
:104320007B68DB6D08229A403B699A607B685B6D15
:1043300043F001027B685A657B68DB6D01229A407D
:10434000FB681340002B12D07B681B685B6903F08D
:104350008003002B0BD07B68DB6D01229A403B6908
:104360009A607B685B6D43F002027B685A657B68EC
:10437000DB6D04229A40FB681340002B12D07B684F
:104380001B681B6803F00203002B0BD07B68DB6DFE
:1043900004229A403B699A607B685B6D43F004029B
:1043A0007B685A657B68DB6D10229A40FB6813407E
:1043B000002B43D07B681B681B6803F00803002BAD
:1043C0003CD07B68DB6D10229A403B699A607B6829
:1043D0001B681B6803F48023002B18D07B681B68C4
:1043E0001B6803F40023002B08D17B681B6C002B97
:1043F00024D07B681B6C786898471FE07B689B6CB7
:10440000002B1BD07B689B6C7868984716E07B6814
:104410001B681B6803F48073002B07D17B681B6843
:104420001A687B681B6822F008021A607B681B6CA4
:10443000002B03D07B681B6C786898477B68DB6D2A
:1044400020229A40FB681340002B00F08F807B688D
:104450001B681B6803F01003002B00F087807B684B
:10446000DB6D20229A403B699A607B6893F8353077
:10447000DBB2052B36D17B681B681A687B681B682A
:1044800022F016021A607B681B685A697B681B68F9
:1044900022F080025A617B681B6C002B03D17B6881
:1044A0009B6C002B07D07B681B681A687B681B68B5
:1044B00022F008021A607B68DB6D3F229A403B695C
:1044C0009A607B68012283F835207B68002283F89C
:1044D00034207B681B6D002B7ED07B681B6D786859
:1044E000984779E07B681B681B6803F48023002BE6
:1044F0001DD07B681B681B6803F40023002B0DD1C3
:104500007B685B6C002B31D07B685B6C786898476C
:104510002CE000BF54000020B5814E1B7B68DB6B94
:10452000002B23D07B68DB6B786898471EE07B68A4
:104530001B681B6803F48073002B0FD17B681B681A
:104540001A687B681B6822F010021A607B680122DF
:1045500083F835207B68002283F834207B68DB6B8E
:10456000002B03D07B68DB6B786898477B685B6DBA
:10457000002B32D07B685B6D03F00103002B22D04F
:104580007B68052283F835207B681B681A687B6886
:104590001B6822F001021A60BB680133BB607A69B4
:1045A0009A4207D37B681B681B6803F00103002B4A
:1045B000F2D100E000BF7B68012283F835207B68E0
:1045C000002283F834207B68DB6C002B05D07B68ED
:1045D000DB6C7868984700E000BF1837BD4680BDA7
:1045E00080B485B000AFF860B9607A603B60FB686A
:1045F0001B681A68FB681B6822F480221A60FB683B
:104600001B683A685A60FB689B68402B08D1FB68BE
:104610001B687A689A60FB681B68BA68DA6007E012
:10462000FB681B68BA689A60FB681B687A68DA6086
:1046300000BF1437BD465DF8047B704780B485B079
:1046400000AF78607B681B68DBB2103B144AA2FBAA
:1046500003231B09FB60134AFB6813441B781A46AB
:104660007B68DA65FB68032B09D97B681B6823F438
:104670007F7323F003031A1D7B689A6507E07B684C
:104680001B6823F47F7323F003037A6893657B68C8
:104690009B6D18461437BD465DF8047B704700BF1C
:1046A000ABAAAAAA388E000880B485B000AF7860A3
:1046B0000023FB737B689B6ABB607B689B69002B54
:1046C0001FD1BB68032B56D801A252F823F000BFBC
:1046D000E1460008F3460008E14600087747000875
:1046E0007B68DB6A03F08073002B46D00123FB73E9
:1046F00043E07B68DB6AB3F1C07F40D10123FB73E9
:104700003DE07B689B69B3F5005F21D1BB68032B5B
:1047100037D801A252F823F0294700082F47000894
:1047200029470008414700080123FB7330E07B68FC
:10473000DB6A03F08073002B25D00123FB7322E09A
:104740007B68DB6AB3F1C07F1FD10123FB731CE0E0
:10475000BB68022B03D9BB68032B03D018E00123ED
:10476000FB7315E07B68DB6A03F08073002B0ED0CF
:104770000123FB730BE000BF0AE000BF08E000BFAD
:1047800006E000BF04E000BF02E000BF00E000BFA1
:10479000FB7B18461437BD465DF8047B704700BFAD
:1047A00080B489B000AF7860396000237B6100235A
:1047B0003B610023BB610023FB616BE10122FB69CC
:1047C00002FA03F37B613B681B687A6913403B6123
:1047D0003A697B699A4240F05A813B685B6803F012
:1047E0000303012B05D03B685B6803F00303022B36
:1047F00030D17B689B68BB61FB695B00032202FAD6
:1048000003F3DB43BA691340BB613B68DA68FB69B9
:104810005B0002FA03F3BA691343BB617B68BA69B0
:104820009A607B685B68BB610122FB6902FA03F353
:10483000DB43BA691340BB613B685B681B0903F04B
:104840000102FB6902FA03F3BA691343BB617B6897
:10485000BA695A603B685B6803F00303032B17D007
:104860007B68DB68BB61FB695B00032202FA03F330
:10487000DB43BA691340BB613B689A68FB695B0024
:1048800002FA03F3BA691343BB617B68BA69DA6061
:104890003B685B6803F00303022B23D1FB69DA0852
:1048A0007B68083253F82230BB61FB6903F00703D1
:1048B0009B000F2202FA03F3DB43BA691340BB618A
:1048C0003B681A69FB6903F007039B0002FA03F3D4
:1048D000BA691343BB61FB69DA087B680832B969BE
:1048E00043F822107B681B68BB61FB695B000322F5
:1048F00002FA03F3DB43BA691340BB613B685B68B0
:1049000003F00302FB695B0002FA03F3BA69134385
:10491000BB617B68BA691A603B685B6803F440332B
:10492000002B00F0B4800023FB60604B5B6C5F4A9F
:1049300043F4804353645D4B5B6C03F48043FB6042
:10494000FB685B4AFB699B08023352F82330BB616A
:10495000FB6903F003039B000F2202FA03F3DB431E
:10496000BA691340BB617B68524A93422BD07B6883
:10497000514A934225D07B68504A93421FD07B68AE
:104980004F4A934219D07B684E4A934213D07B68BA
:104990004D4A93420DD07B684C4A934207D07B68C6
:1049A0004B4A934201D107230EE008230CE0062373
:1049B0000AE0052308E0042306E0032304E00223C1
:1049C00002E0012300E00023FA6902F003029200F2
:1049D0009340BA691343BB613549FB699B080233B5
:1049E000BA6941F823203B4B9B68BB613B69DB43C1
:1049F000BA691340BB613B685B6803F48013002B0A
:104A000003D0BA693B691343BB61324ABB69936007
:104A1000304BDB68BB613B69DB43BA691340BB6168
:104A20003B685B6803F40013002B03D0BA693B6951
:104A30001343BB61274ABB69D360264B5B68BB61EC
:104A40003B69DB43BA691340BB613B685B6803F4B5
:104A50000033002B03D0BA693B691343BB611D4A85
:104A6000BB6953601B4B1B68BB613B69DB43BA6985
:104A70001340BB613B685B6803F48033002B03D0B9
:104A8000BA693B691343BB61124ABB691360FB6996
:104A90000133FB61FB690F2B7FF690AE00BF00BFB7
:104AA0002437BD465DF8047B704700BF00380240E4
:104AB00000380140000002400004024000080240AB
:104AC000000C024000100240001402400018024096
:104AD000001C0240003C014080B485B000AF78600B
:104AE0000B467B807B681A697B881340002B02D0C1
:104AF0000123FB7301E00023FB73FB7B1846143793
:104B0000BD465DF8047B704780B483B000AF786029
:104B10000B467B8013467B707B78002B03D07A8812
:104B20007B689A6103E07B881A047B689A6100BF06
:104B30000C37BD465DF8047B704780B485B000AF8C
:104B400078600B467B807B685B69FB607A88FB68DA
:104B500013401A04FB68D9437B880B401A437B68D7
:104B60009A6100BF1437BD465DF8047B70470000B2
:104B700080B582B000AF0346FB80084B5A69FB88C2
:104B80001340002B06D0054AFB885361FB8818466A
:104B9000FDF766F900BF0837BD4680BD003C014007
:104BA00080B586B000AF78607B68002B01D101230F
:104BB00067E27B681B6803F00103002B75D0884B0C
:104BC0009B6803F00C03042B0CD0854B9B6803F00F
:104BD0000C03082B12D1824B5B6803F48003B3F5FE
:104BE000800F0BD17E4B1B6803F40033002B5BD08E
:104BF0007B685B68002B57D1012342E27B685B68CE
:104C0000B3F5803F06D1764B1B68754A43F4803379
:104C100013601DE07B685B68B3F5A02F0CD1704B6F
:104C20001B686F4A43F4802313606D4B1B686C4A0A
:104C300043F4803313600BE0694B1B68684A23F42C
:104C400080331360664B1B68654A23F4802313602E
:104C50007B685B68002B13D0FEF77CFC386108E0B2
:104C6000FEF778FC02463B69D31A642B01D9032373
:104C700007E25B4B1B6803F40033002BF0D014E019
:104C8000FEF768FC386108E0FEF764FC02463B6909
:104C9000D31A642B01D90323F3E1514B1B6803F4AE
:104CA0000033002BF0D100E000BF7B681B6803F0ED
:104CB0000203002B63D04A4B9B6803F00C03002BCC
:104CC0000BD0474B9B6803F00C03082B1CD1444BC3
:104CD0005B6803F48003002B16D1414B1B6803F083
:104CE0000203002B05D07B68DB68012B01D0012378
:104CF000C7E13B4B1B6823F0F8027B681B69DB00B4
:104D0000374913430B603AE07B68DB68002B20D007
:104D1000344B01221A60FEF71DFC386108E0FEF7F3
:104D200019FC02463B69D31A022B01D90323A8E1DF
:104D30002B4B1B6803F00203002BF0D0284B1B68A1
:104D400023F0F8027B681B69DB00254913430B60E5
:104D500015E0244B00221A60FEF7FCFB386108E0E6
:104D6000FEF7F8FB02463B69D31A022B01D9032355
:104D700087E11B4B1B6803F00203002BF0D17B681B
:104D80001B6803F00803002B36D07B685B69002B9F
:104D900016D0154B01221A60FEF7DCFB386108E0E3
:104DA000FEF7D8FB02463B69D31A022B01D9032335
:104DB00067E10B4B5B6F03F00203002BF0D01BE0AD
:104DC000094B00221A60FEF7C5FB38610EE0FEF7C2
:104DD000C1FB02463B69D31A022B07D9032350E1DA
:104DE0000038024000004742800E4742884B5B6F0C
:104DF00003F00203002BEAD17B681B6803F0040375
:104E0000002B00F097800023FB75814B1B6C03F097
:104E10008053002B0FD10023BB607D4B1B6C7C4A61
:104E200043F0805313647A4B1B6C03F08053BB60D8
:104E3000BB680123FB75774B1B6803F48073002B61
:104E400018D1744B1B68734A43F480731360FEF7E8
:104E500081FB386108E0FEF77DFB02463B69D31A0F
:104E6000022B01D903230CE16A4B1B6803F4807306
:104E7000002BF0D07B689B68012B06D1644B1B6F25
:104E8000634A43F0010313671CE07B689B68052BB2
:104E90000CD15F4B1B6F5E4A43F0040313675C4BFE
:104EA0001B6F5B4A43F0010313670BE0584B1B6F0A
:104EB000574A23F001031367554B1B6F544A23F0E5
:104EC000040313677B689B68002B15D0FEF742FB39
:104ED00038610AE0FEF73EFB02463B69D31A41F215
:104EE0008832934201D90323CBE0494B1B6F03F077
:104EF0000203002BEED014E0FEF72CFB38610AE031
:104F0000FEF728FB02463B69D31A41F288329342EE
:104F100001D90323B5E03E4B1B6F03F00203002BC6
:104F2000EED1FB7D012B05D1394B1B6C384A23F0A8
:104F3000805313647B689B69002B00F0A180344B85
:104F40009B6803F00C03082B5CD07B689B69022BE9
:104F500041D1314B00221A60FEF7FCFA386108E0BB
:104F6000FEF7F8FA02463B69D31A022B01D9032354
:104F700087E0274B1B6803F00073002BF0D17B68A0
:104F8000DA697B681B6A1A437B685B6A9B011A4378
:104F90007B689B6A5B08013B1B041A437B68DB6AE6
:104FA0001B061B4913434B601B4B01221A60FEF783
:104FB000D1FA386108E0FEF7CDFA02463B69D31A10
:104FC000022B01D903235CE0114B1B6803F0007333
:104FD000002BF0D054E0104B00221A60FEF7BAFA12
:104FE000386108E0FEF7B6FA02463B69D31A022B95
:104FF00001D9032345E0064B1B6803F00073002B27
:10500000F0D13DE07B689B69012B07D1012338E09B
:105010000038024000700040600047421B4B5B6854
:10502000FB607B689B69012B28D0FB6803F480023E
:105030007B68DB699A4221D1FB6803F03F027B6801
:105040001B6A9A421AD1FA6847F6C07313407A680D
:10505000526A9201934211D1FB6803F440327B689B
:105060009B6A5B08013B1B049A4207D1FB6803F073
:1050700070627B68DB6A1B069A4201D0012300E064
:10508000002318461837BD4680BD00BF00380240D7
:1050900080B584B000AF786039607B68002B01D1A7
:1050A0000123CCE0684B1B6803F007033A689A427F
:1050B0000CD9654B3A68D2B21A70634B1B6803F087
:1050C00007033A689A4201D00123B8E07B681B6865
:1050D00003F00203002B20D07B681B6803F004035D
:1050E000002B05D0594B9B68584A43F4E05393601A
:1050F0007B681B6803F00803002B05D0534B9B68AB
:10510000524A43F460439360504B9B6823F0F00293
:105110007B689B684D4913438B607B681B6803F079
:105120000103002B44D07B685B68012B07D1474B00
:105130001B6803F40033002B19D101237FE07B6847
:105140005B68022B03D07B685B68032B07D13F4B66
:105150001B6803F00073002B09D101236FE03B4B68
:105160001B6803F00203002B01D1012367E0374BDA
:105170009B6823F003027B685B68344913438B60B0
:10518000FEF7E8F9F8600AE0FEF7E4F90246FB688A
:10519000D31A41F28832934201D903234FE02B4BBB
:1051A0009B6803F00C027B685B689B009A42EBD122
:1051B000254B1B6803F007033A689A420CD2224B36
:1051C0003A68D2B21A70204B1B6803F007033A68A2
:1051D0009A4201D0012332E07B681B6803F004038C
:1051E000002B08D0194B9B6823F4E0527B68DB68E6
:1051F000164913438B607B681B6803F00803002B80
:1052000009D0124B9B6823F460427B681B69DB006A
:105210000E4913438B6000F021F802460B4B9B684C
:105220001B0903F00F030A49CB5C22FA03F3094A76
:105230001360094B1B681846FEF744F80023184614
:105240001037BD4680BD00BF003C02400038024020
:10525000208E000854000020580000202DE9B04F97
:1052600094B000AF00237B640023FB6400233B6405
:105270000023BB64794B9B6803F00C03082B0DD013
:10528000082B00F2E180002B02D0042B03D0DBE0DE
:10529000734BBB64DBE0734BBB64D8E06F4B5B6864
:1052A00003F03F037B646D4B5B6803F48003002BCA
:1052B00063D06A4B5B689B090022BB63FA63BB6BDC
:1052C000C3F308033B6300237B63D7E90C45224605
:1052D0002B464FF000004FF00001590141EAD26126
:1052E000500102460B462146511A3961294663EBAB
:1052F00001037B614FF000024FF00003D7E904ABDC
:1053000059468B01514643EA916351468A01514601
:10531000B2EB0108594663EB01094FF000024FF070
:1053200000034FEAC90343EA58734FEAC8029046A4
:105330009946234618EB0303BB602B4649EB030356
:10534000FB604FF000024FF00003D7E90245294609
:105350004B02214643EAD15321464A0210461946E0
:105360007B6C0022BB62FA62D7E90A23FBF7AEFB33
:1053700002460B461346FB6458E0384B5B689B09BA
:10538000002218461146C0F308033B6200237B62EB
:10539000D7E9088942464B464FF000004FF0000124
:1053A000590141EAD261500102460B464146B2EB37
:1053B000010A494663EB010B4FF000024FF0000376
:1053C0004FEA8B1343EA9A634FEA8A12B2EB0A045C
:1053D00063EB0B054FF000024FF00003EB0043EAD4
:1053E0005473E20014461D464346E3183B604B46A7
:1053F00045EB03037B604FF000024FF00003D7E959
:10540000004529468B02214643EA915321468A02F0
:10541000104619467B6C0022BB61FA61D7E906236E
:10542000FBF754FB02460B461346FB640B4B5B68D1
:105430001B0C03F0030301335B003B64FA6C3B6C11
:10544000B2FBF3F3BB6402E0054BBB6400BFBB6C73
:1054500018465037BD46BDE8B08F00BF0038024047
:105460000024F40000127A0080B400AF034B1B68E4
:105470001846BD465DF8047B704700BF540000200D
:1054800080B500AFFFF7F0FF0246054B9B689B0A13
:1054900003F007030349CB5C22FA03F3184680BDEF
:1054A00000380240308E000880B500AFFFF7DCFF07
:1054B0000246054B9B685B0B03F007030349CB5C7B
:1054C00022FA03F3184680BD00380240308E0008EF
:1054D00080B483B000AF786039607B680F221A60B7
:1054E000124B9B6803F003027B685A600F4B9B686A
:1054F00003F0F0027B689A600C4B9B6803F4E05267
:105500007B68DA60094B9B68DB0803F4E0527B6838
:105510001A61074B1B6803F007023B681A6000BF63
:105520000C37BD465DF8047B704700BF0038024071
:10553000003C024080B582B000AF78607B68002BF1
:1055400001D1012341E07B6893F83D30DBB2002BB1
:1055500006D17B68002283F83C207868FDF7D0FCF8
:105560007B68022283F83D207B681A687B680433DD
:105570001946104600F070FC7B68012283F8462033
:105580007B68012283F83E207B68012283F83F205C
:105590007B68012283F840207B68012283F8412048
:1055A0007B68012283F842207B68012283F8432034
:1055B0007B68012283F844207B68012283F8452020
:1055C0007B68012283F83D20002318460837BD463A
:1055D00080BD000080B485B000AF78607B6893F830
:1055E0003D30DBB2012B01D001234EE07B6802226B
:1055F00083F83D207B681B68DA687B681B6842F093
:105600000102DA607B681B68234A934222D07B68E0
:105610001B68B3F1804F1DD07B681B681F4A934203
:1056200018D07B681B681E4A934213D07B681B68A6
:105630001C4A93420ED07B681B681B4A934209D0D8
:105640007B681B68194A934204D07B681B68184A20
:10565000934211D17B681B689B6803F00703FB60D2
:10566000FB68062B10D07B681B681A687B681B6878
:1056700042F001021A6007E07B681B681A687B68C9
:105680001B6842F001021A60002318461437BD4619
:105690005DF8047B704700BF00000140000400403B
:1056A00000080040000C00400004014000400140A0
:1056B0000018004080B582B000AF78607B68002B96
:1056C00001D1012341E07B6893F83D30DBB2002B30
:1056D00006D17B68002283F83C207868FDF74CFCFB
:1056E0007B68022283F83D207B681A687B6804335C
:1056F0001946104600F0B0FB7B68012283F8462073
:105700007B68012283F83E207B68012283F83F20DA
:105710007B68012283F840207B68012283F84120C6
:105720007B68012283F842207B68012283F84320B2
:105730007B68012283F844207B68012283F845209E
:105740007B68012283F83D20002318460837BD46B8
:1057500080BD000080B584B000AF786039603B68E0
:10576000002B09D17B6893F83E30DBB2012B14BFCC
:1057700001230023DBB222E03B68042B09D17B68C4
:1057800093F83F30DBB2012B14BF01230023DBB2BF
:1057900015E03B68082B09D17B6893F84030DBB2F9
:1057A000012B14BF01230023DBB208E07B6893F8D0
:1057B0004130DBB2012B14BF01230023DBB2002BED
:1057C00001D001237CE03B68002B04D17B680222DE
:1057D00083F83E2013E03B68042B04D17B6802224F
:1057E00083F83F200BE03B68082B04D17B68022242
:1057F00083F8402003E07B68022283F841207B6825
:105800001B6801223968184600F010FE7B681B688F
:105810002D4A934204D07B681B682C4A934201D1E5
:10582000012300E00023002B07D07B681B685A6C23
:105830007B681B6842F400425A647B681B68224AFA
:10584000934222D07B681B68B3F1804F1DD07B68E8
:105850001B681F4A934218D07B681B681D4A9342FD
:1058600013D07B681B681C4A93420ED07B681B6870
:10587000164A934209D07B681B68184A934204D0A9
:105880007B681B68164A934211D17B681B689B6832
:1058900003F00703FB60FB68062B10D07B681B68D6
:1058A0001A687B681B6842F001021A6007E07B6897
:1058B0001B681A687B681B6842F001021A600023AB
:1058C00018461037BD4680BD00000140000401406D
:1058D0000004004000080040000C0040004001406F
:1058E0000018004080B582B000AF78607B681B680C
:1058F0001B6903F00203022B22D17B681B68DB6863
:1059000003F00203022B1BD17B681B686FF00202BD
:105910001A617B6801221A777B681B689B6903F018
:105920000303002B03D0786800F077FA05E078686D
:1059300000F069FA786800F07AFA7B6800221A773A
:105940007B681B681B6903F00403042B22D17B686E
:105950001B68DB6803F00403042B1BD17B681B6806
:105960006FF004021A617B6802221A777B681B6859
:105970009B6903F44073002B03D0786800F04DFA64
:1059800005E0786800F03FFA786800F050FA7B682C
:1059900000221A777B681B681B6903F00803082B39
:1059A00022D17B681B68DB6803F00803082B1BD13E
:1059B0007B681B686FF008021A617B6804221A7703
:1059C0007B681B68DB6903F00303002B03D0786856
:1059D00000F023FA05E0786800F015FA786800F026
:1059E00026FA7B6800221A777B681B681B6903F024
:1059F0001003102B22D17B681B68DB6803F01003B7
:105A0000102B1BD17B681B686FF010021A617B683A
:105A100008221A777B681B68DB6903F44073002B4C
:105A200003D0786800F0F9F905E0786800F0EBF948
:105A3000786800F0FCF97B6800221A777B681B68A5
:105A40001B6903F00103012B0ED17B681B68DB6827
:105A500003F00103012B07D17B681B686FF0010283
:105A60001A617868FDF77AF97B681B681B6903F097
:105A70008003802B0ED17B681B68DB6803F08003FA
:105A8000802B07D17B681B686FF080021A617868F1
:105A900000F078FD7B681B681B6903F04003402B16
:105AA0000ED17B681B68DB6803F04003402B07D1F5
:105AB0007B681B686FF040021A61786800F0C1F9DA
:105AC0007B681B681B6903F02003202B0ED17B68C9
:105AD0001B68DB6803F02003202B07D17B681B6861
