:020000040800F2
:10000000000002203D3A0008653900086B390008FD
:1000100071390008773900087D39000800000000B8
:10002000000000000000000000000000118A00082D
:100030008339000800000000618C0008C98C0008AA
:100040008D3A00088D3A00088D3A00088D3A000874
:100050008D3A00088D3A00088D3A00088D3A000864
:100060008D3A00088D3A00088D3A00088D3A000854
:100070008D3A00088D3A00088D3A00088D3A000844
:100080008D3A00088D3A00088D3A00088D3A000834
:100090008D3A00088D3A00088D3A00089139000821
:1000A0008D3A00088D3A00088D3A00088D3A000814
:1000B000A13900088D3A00088D3A00088D3A0008F1
:1000C0008D3A00088D3A00088D3A00088D3A0008F4
:1000D0008D3A0008B5390008C9390008DD39000833
:1000E0008D3A00088D3A00088D3A00088D3A0008D4
:1000F0008D3A0008F13900088D3A00088D3A000861
:100100008D3A00088D3A00088D3A00088D3A0008B3
:100110008D3A00088D3A00088D3A00088D3A0008A3
:10012000053A00088D3A00088D3A00088D3A00081B
:100130008D3A00088D3A00088D3A00088D3A000883
:100140008D3A00088D3A00088D3A00088D3A000873
:100150008D3A00088D3A00088D3A00088D3A000863
:100160008D3A00088D3A00088D3A00088D3A000853
:100170008D3A00088D3A00088D3A00080000000012
:080180008D3A00088D3A0008D9
:1001900010B5054C237833B9044B13B10448AFF3C1
:1001A00000800123237010BDC80000200000000063
:1001B0001C93000808B5034B1BB103490348AFF378
:1001C000008008BD00000000CC0000201C93000847
:1001D00081F0004102E000BF83F0004330B54FEAF8
:1001E00041044FEA430594EA050F08BF90EA020F65
:1001F0001FBF54EA000C55EA020C7FEA645C7FEAF8
:10020000655C00F0E2804FEA5454D4EB5555B8BF1A
:100210006D420CDD2C4480EA020281EA030382EA8B
:10022000000083EA010180EA020281EA0303362D1D
:1002300088BF30BD11F0004F4FEA01314FF4801CF0
:100240004CEA113102D0404261EB410113F0004F02
:100250004FEA03334CEA133302D0524263EB4303B9
:1002600094EA050F00F0A780A4F10104D5F1200E57
:100270000DDB02FA0EFC22FA05F2801841F10001B2
:1002800003FA0EF2801843FA05F359410EE0A5F186
:1002900020050EF1200E012A03FA0EFC28BF4CF0B7
:1002A000020C43FA05F3C01851EBE37101F000456D
:1002B00007D54FF0000EDCF1000C7EEB00006EEB7A
:1002C0000101B1F5801F1BD3B1F5001F0CD3490804
:1002D0005FEA30004FEA3C0C04F101044FEA44525B
:1002E00012F5800F80F09A80BCF1004F08BF5FEAE2
:1002F000500C50F1000041EB045141EA050130BDC2
:100300005FEA4C0C404141EB0101013C28BFB1F5D3
:10031000801FE9D291F0000F04BF01460020B1FA1E
:1003200081F308BF2033A3F10B03B3F120020CDAF1
:100330000C3208DD02F1140CC2F10C0201FA0CF0CF
:1003400021FA02F10CE002F11402D8BFC2F1200C34
:1003500001FA02F120FA0CFCDCBF41EA0C019040EA
:10036000E41AA2BF01EB0451294330BD6FEA040433
:100370001F3C1CDA0C340EDC04F11404C4F120021E
:1003800020FA04F001FA02F340EA030021FA04F330
:1003900045EA030130BDC4F10C04C4F1200220FA87
:1003A00002F001FA04F340EA0300294630BD21FAC5
:1003B00004F0294630BD94F0000F83F4801306BF8B
:1003C00081F480110134013D4EE77FEA645C18BF7F
:1003D0007FEA655C29D094EA050F08BF90EA020F16
:1003E00005D054EA000C04BF1946104630BD91EA0E
:1003F000030F1EBF0021002030BD5FEA545C05D111
:100400004000494128BF41F0004130BD14F580044F
:100410003CBF01F5801130BD01F0004545F0FE41C3
:1004200041F470014FF0000030BD7FEA645C1ABFF8
:10043000194610467FEA655C1CBF0B46024650EA2F
:10044000013406BF52EA033591EA030F41F400215B
:1004500030BD00BF90F0000F04BF0021704730B5E1
:100460004FF4806404F132044FF000054FF00001B6
:1004700050E700BF90F0000F04BF0021704730B577
:100480004FF4806404F1320410F0004548BF40424C
:100490004FF000013EE700BF42004FEAE2014FEAA1
:1004A00031014FEA02701FBF12F07F4393F07F4F7C
:1004B00081F06051704732F07F4208BF704793F07F
:1004C0007F4F04BF41F40021704730B54FF4607492
:1004D00001F0004521F000411CE700BF50EA010295
:1004E00008BF704730B54FF000050AE050EA01023E
:1004F00008BF704730B511F0004502D5404261EBAE
:1005000041014FF4806404F132045FEA915C3FF4EE
:10051000D8AE4FF003025FEADC0C18BF03325FEA8B
:10052000DC0C18BF033202EBDC02C2F1200300FA3C
:1005300003FC20FA02F001FA03FE40EA0E0021FA61
:1005400002F11444BDE600BF70B54FF0FF0C4CF44F
:10055000E06C1CEA11541DBF1CEA135594EA0C0F01
:1005600095EA0C0F00F0DEF82C4481EA030621EA3C
:100570004C5123EA4C5350EA013518BF52EA033577
:1005800041F4801143F4801338D0A0FB02CE4FF029
:100590000005E1FB02E506F00042E0FB03E54FF059
:1005A0000006E1FB03569CF0000F18BF4EF0010E51
:1005B000A4F1FF04B6F5007F64F5407404D25FEA4D
:1005C0004E0E6D4146EB060642EAC62141EA555100
:1005D0004FEAC52040EA5E504FEACE2EB4F1FD0C42
:1005E00088BFBCF5E06F1ED8BEF1004F08BF5FEAC0
:1005F000500E50F1000041EB045170BD06F0004672
:1006000046EA010140EA020081EA0301B4EB5C041E
:10061000C2BFD4EB0C0541EA045170BD41F4801116
:100620004FF0000E013C00F3AB8014F1360FDEBF3B
:10063000002001F0004170BDC4F10004203C35DA17
:100640000C341BDC04F11404C4F1200500FA05F39A
:1006500020FA04F001FA05F240EA020001F000423B
:1006600021F0004110EBD37021FA04F642EB0601B1
:100670005EEA430E08BF20EAD37070BDC4F10C04DB
:10068000C4F1200500FA04F320FA05F001FA04F29F
:1006900040EA020001F0004110EBD37041F100018B
:1006A0005EEA430E08BF20EAD37070BDC4F1200596
:1006B00000FA05F24EEA020E20FA04F301FA05F2FE
:1006C00043EA020321FA04F001F0004121FA04F2A6
:1006D00020EA020000EBD3705EEA430E08BF20EA76
:1006E000D37070BD94F0000F0FD101F000464000B0
:1006F00041EB010111F4801F08BF013CF7D041EA32
:10070000060195F0000F18BF704703F00046520035
:1007100043EB030313F4801F08BF013DF7D043EA06
:100720000603704794EA0C0F0CEA135518BF95EABC
:100730000C0F0CD050EA410618BF52EA4306D1D143
:1007400081EA030101F000414FF0000070BD50EA62
:10075000410606BF1046194652EA430619D094EAEC
:100760000C0F02D150EA013613D195EA0C0F05D1D6
:1007700052EA03361CBF104619460AD181EA03012A
:1007800001F0004141F0FE4141F470014FF00000E2
:1007900070BD41F0FE4141F4780170BD70B54FF07D
:1007A000FF0C4CF4E06C1CEA11541DBF1CEA1355FD
:1007B00094EA0C0F95EA0C0F00F0A7F8A4EB0504DF
:1007C00081EA030E52EA03354FEA013100F08880D6
:1007D0004FEA03334FF0805545EA131343EA12639F
:1007E0004FEA022245EA111545EA10654FEA002654
:1007F0000EF000419D4208BF964244F1FD0404F50D
:10080000407402D25B084FEA3202B61A65EB030568
:100810005B084FEA32024FF480104FF4002CB6EB25
:10082000020E75EB030E22BFB61A754640EA0C00A5
:100830005B084FEA3202B6EB020E75EB030E22BFE5
:10084000B61A754640EA5C005B084FEA3202B6EB26
:10085000020E75EB030E22BFB61A754640EA9C00E5
:100860005B084FEA3202B6EB020E75EB030E22BFB5
:10087000B61A754640EADC0055EA060E18D04FEA73
:10088000051545EA16754FEA06164FEAC30343EA13
:1008900052734FEAC2025FEA1C1CC0D111F4801FE0
:1008A0000BD141EA00014FF000004FF0004CB6E7D9
:1008B00011F4801F04BF01430020B4F1FD0C88BF78
:1008C000BCF5E06F3FF6AFAEB5EB030C04BFB6EB83
:1008D000020C5FEA500C50F1000041EB045170BD76
:1008E0000EF0004E4EEA113114EB5C04C2BFD4EBA3
:1008F0000C0541EA045170BD41F480114FF0000E27
:10090000013C90E645EA060E8DE60CEA135594EAA2
:100910000C0F08BF95EA0C0F3FF43BAF94EA0C0FA5
:100920000AD150EA01347FF434AF95EA0C0F7FF41A
:1009300025AF104619462CE795EA0C0F06D152EA6E
:1009400003353FF4FDAE1046194622E750EA410652
:1009500018BF52EA43067FF4C5AE50EA41047FF463
:100960000DAF52EA43057FF4EBAE12E74FF0FF3CC8
:1009700006E000BF4FF0010C02E000BF4FF0010C99
:100980004DF804CD4FEA410C7FEA6C5C4FEA430C12
:1009900018BF7FEA6C5C1BD001B050EA410C0CBF61
:1009A00052EA430C91EA030F02BF90EA020F0020C3
:1009B000704710F1000F91EA030F58BF994208BF2A
:1009C00090422CBFD8176FEAE37040F001007047E7
:1009D0004FEA410C7FEA6C5C02D150EA013C07D13E
:1009E0004FEA430C7FEA6C5CD6D152EA033CD3D089
:1009F0005DF8040B704700BF8446104662468C4683
:100A00001946634600E000BF01B5FFF7B7FF0028B5
:100A100048BF10F1000F01BD4DF808EDFFF7F4FFDE
:100A20000CBF012000205DF808FB00BF4DF808ED69
:100A3000FFF7EAFF34BF012000205DF808FB00BF8C
:100A40004DF808EDFFF7E0FF94BF012000205DF8AE
:100A500008FB00BF4DF808EDFFF7CEFF94BF012063
:100A600000205DF808FB00BF4DF808EDFFF7C4FF5C
:100A700034BF012000205DF808FB00BF4FEA4102AF
:100A800012F5001215D211D56FF47873B3EB6252E0
:100A900012D94FEAC12343F0004343EA505311F007
:100AA000004F23FA02F018BF404270474FF0000099
:100AB000704750EA013005D111F0004008BF6FF0D7
:100AC000004070474FF00000704700BF53B94AB96B
:100AD000002908BF00281CBF4FF0FF314FF0FF3046
:100AE00000F074B9ADF1080C6DE904CE00F006F821
:100AF000DDF804E0DDE9022304B070472DE9F0479A
:100B0000089D04468E46002B4DD18A42944669D9F1
:100B1000B2FA82F252B101FA02F3C2F1200120FAD4
:100B200001F10CFA02FC41EA030E94404FEA1C4822
:100B3000210CBEFBF8F61FFA8CF708FB16E341EA1E
:100B4000034306FB07F199420AD91CEB030306F1A4
:100B5000FF3080F01F81994240F21C81023E6344C5
:100B60005B1AA4B2B3FBF8F008FB103344EA034469
:100B700000FB07F7A7420AD91CEB040400F1FF337E
:100B800080F00A81A74240F207816444023840EABB
:100B90000640E41B00261DB1D4400023C5E90043F4
:100BA0003146BDE8F0878B4209D9002D00F0EF8077
:100BB0000026C5E9000130463146BDE8F087B3FAAA
:100BC00083F6002E4AD18B4202D3824200F2F98092
:100BD000841A61EB030301209E46002DE0D0C5E995
:100BE000004EDDE702B9FFDEB2FA82F2002A40F0E1
:100BF0009280A1EB0C014FEA1C471FFA8CFE0126E4
:100C0000200CB1FBF7F307FB131140EA01410EFB87
:100C100003F0884208D91CEB010103F1FF3802D22E
:100C2000884200F2CB804346091AA4B2B1FBF7F028
:100C300007FB101144EA01440EFB00FEA64508D94B
:100C40001CEB040400F1FF3102D2A64500F2BB8088
:100C50000846A4EB0E0440EA03409CE7C6F12007D7
:100C6000B34022FA07FC4CEA030C20FA07F401FA1D
:100C700006F31C43F9404FEA1C4900FA06F3B1FBA6
:100C8000F9F8200C1FFA8CFE09FB181140EA01410B
:100C900008FB0EF0884202FA06F20BD91CEB0101A8
:100CA00008F1FF3A80F08880884240F28580A8F100
:100CB00002086144091AA4B2B1FBF9F009FB101152
:100CC00044EA014100FB0EFE8E4508D91CEB0101F0
:100CD00000F1FF346CD28E456AD90238614440EA93
:100CE0000840A0FB0294A1EB0E01A142C846A64613
:100CF00056D353D05DB1B3EB080261EB0E0101FA9C
:100D000007F722FA06F3F1401F43C5E900710026F8
:100D10003146BDE8F087C2F12003D8400CFA02FC4E
:100D200021FA03F3914001434FEA1C471FFA8CFE5E
:100D3000B3FBF7F007FB10360B0C43EA064300FB4E
:100D40000EF69E4204FA02F408D91CEB030300F1EC
:100D5000FF382FD29E422DD9023863449B1B89B2A3
:100D6000B3FBF7F607FB163341EA034106FB0EF32C
:100D70008B4208D91CEB010106F1FF3816D28B42D9
:100D800014D9023E6144C91A46EA004638E72E46A5
:100D9000284605E70646E3E61846F8E64B45A9D29D
:100DA000B9EB020864EB0C0E0138A3E74646EAE70C
:100DB000204694E74046D1E7D0467BE7023B6144BA
:100DC00032E7304609E76444023842E7704700BF23
:100DD00080B485B000AFF860B9607A60FB68074AFC
:100DE0001A60BB68064A1A607B6880221A6000BFDE
:100DF0001437BD465DF8047B704700BFE400002057
:100E00009801002000000000B0B500AFA04B1A68A8
:100E1000A04B1B68D31AA04A1360A04B1B78002B71
:100E20003FD19B4B1B68002B1DDB9B4B1B68002B92
:100E30000CDA9B498CA3D3E90023C1E9002399492B
:100E400089A3D3E90023C1E900233AE0944988A3A8
:100E5000D3E90023C1E90023924985A3D3E9002304
:100E6000C1E900232DE08C4B1B68002B0CDD8C4965
:100E70007DA3D3E90023C1E900238A497AA3D3E9FA
:100E80000023C1E900231CE0854979A3D3E90023AD
:100E9000C1E90023834976A3D3E90023C1E90023F4
:100EA0000FE07E4B1B78012B0BD17D496EA3D3E95C
:100EB0000023C1E900237B496FA3D3E90023C1E9E3
:100EC0000023754B1B681846FFF7D4FA754BD3E91E
:100ED0000023FFF739FB02460B467349C1E90023A3
:100EE0006D4B1B681846FFF7C5FA704BD3E900231A
:100EF000FFF772F902460B46104619466C4BD3E9D0
:100F00000023FFF721FB02460B46104619465CA35F
:100F1000D3E90023FFF742FC02460B466549C1E9CD
:100F200000235F4BD3E900234FF000006249FFF735
:100F300053F902460B4610461946604BD3E900238D
:100F4000FFF702FB02460B4614461D46544BD3E9FD
:100F50000001584BD3E90023FFF7F6FA02460B468F
:100F600020462946FFF73AF902460B465449C1E9A3
:100F70000023494B1B681846FFF77CFA02460B46D4
:100F80004A49C1E900234E4BD3E900234B49C1E94B
:100F900000234C4BD3E900014FF000024FF0000357
:100FA000FFF762FD0346002B03D0474B01221A6076
:100FB0000FE0444BD3E900014FF000024FF0000373
:100FC000FFF734FD0346002B03D03F4B4FF0FF32B9
:100FD0001A60354BD3E90001394BD3E90023FFF701
:100FE000FDF802460B463749C1E90023354BD3E9EA
:100FF000000125A3D3E90023FFF736FD0346002BAC
:1010000006D0304920A3D3E90023C1E9002310E032
:101010002C4BD3E900014FF000022C4BFFF706FDEB
:101020000346002B05D027494FF00002274BC1E9AA
:101030000023244BD3E9002310461946FFF71EFD79
:101040000346002BB8BF5B429AB2214B1A80204B5B
:101050001B881B2B06D8104B1B68002B02D01C4B87
:101060001C221A8000BFB0BD7B14AE47E17AB43FAA
:10107000CDCCCCCCCCCCEC3F9A9999999999A93FFD
:10108000FCA9F1D24D62503F0000000000C0724048
:101090004C0600203C060020540600208E0600204E
:1010A0009006002000000020600600205806002066
:1010B00008000020680600200000F03F78060020AD
:1010C00070060020800600204806002000C072C084
:1010D0008C06002080B483B000AF1D4B5B78303BA2
:1010E0001C4A136002237B6016E01A4B1A681346F1
:1010F0009B0013445B001A46164B1A60144A7B6827
:1011000013441B78A3F13002124B1B681344114A9D
:1011100013607B6801337B600D4A7B6813441B7846
:101120002F2B05D90A4A7B6813441B78392BDCD94D
:10113000074B1B782D2B04D1064B1B685B42054ADD
:10114000136000BF0C37BD465DF8047B704700BFDD
:10115000C0060020B806002080B586B000AF7860D9
:101160007B681B68344A934220D1344B1B780A2B8E
:101170000BD0334B1B785A1CD1B2314A11701A462E
:101180002E4B19782F4B99540BE0FFF7A3FF2C4BF4
:101190001A782D4B1A702D4B01221A70284B002201
:1011A0001A70012225492A4805F0B3FD7B681B68A7
:1011B000284A93423CD109222749284805F0A9FD35
:1011C0004FF0FF337B6100233B6110E0224A3B6913
:1011D00013441B78942B05D01F4A3B6913441B789A
:1011E000952B01D13B697B613B6901333B613B69D5
:1011F000082BEBDD7B69B3F1FF3F19D00023FB60C7
:1012000013E0154A7B6913441978154AFB681344A7
:101210000A461A707B6901337B617B69092B01D116
:1012200000237B61FB680133FB60FB68082BE8DD72
:1012300000BF1837BD4680BD00440040CC060020EA
:10124000CD060020C0060020CE060020CF060020DC
:10125000A005002000480040A0060020E405002072
:10126000AC06002080B584B000AFB96011461A46C4
:101270000346FB730B46BB811346FB80574B9522FD
:101280001A70BB68B3F1FF3F08D1FB7B5B00DBB298
:1012900003F00603DAB2514B5A700EE0BB68012B23
:1012A0000BD1FB7B5B005BB203F006035BB243F048
:1012B00001035BB2DAB2494B5A70BB891B0A9BB27D
:1012C000DAB2464B9A70BB89DAB2444BDA70FB88CB
:1012D0001B0A9BB2DAB2414B1A71FB88DAB23F4B60
:1012E0005A71FB69B3F1FF3F08D13B7E5B00DBB273
:1012F00003F00603DAB2394B9A710EE0FB69012B59
:101300000BD13B7E5B005BB203F006035BB243F0A4
:1013100001035BB2DAB2314B9A713B8C1B0A9BB270
:10132000DAB22E4BDA713B8CDAB22C4B1A72BB8CD0
:101330001B0A9BB2DAB2294B5A72BB8CDAB2274B2A
:101340009A72FB6AB3F1FF3F09D197F828305B002E
:10135000DBB203F00603DAB2204BDA720FE0FB6A6D
:10136000012B0CD197F828305B005BB203F0060329
:101370005BB243F001035BB2DAB2184BDA723B8E18
:101380001B0A9BB2DAB2154B1A733B8EDAB2134BBF
:101390005A73BB8E1B0A9BB2DAB2104B9A73BB8E88
:1013A000DAB20E4BDA730D4B0A221A744FF47A73C9
:1013B00011220A490A4805F01AFC0346002B04D002
:1013C000012006F0AAFC002303E0012006F0A5FCA2
:1013D000012318461037BD4680BD00BFD00600204F
:1013E0005C05002080B582B000AF0346FB71104B56
:1013F00095221A700E4AFB7953700D4B0A229A708F
:101400004FF47A7303220A490A4805F0F0FB0346B9
:10141000002B04D0012006F080FC002303E0012013
:1014200006F07BFC012318460837BD4680BD00BF8F
:10143000F806002018050020B0B59CB000AF02F0FF
:1014400027FB41F2883002F065FB414B414A1A60AC
:1014500000F0A0F800F076FB00F054FB00F0D2FAA8
:1014600000F0FCFA00F024FB00F050F900F0FCF86A
:1014700000F09CFA00F096F900F016FA364804F0F5
:101480007DFB0421354804F043FC0821334804F077
:101490003FFC0421324804F03BFC0821304804F0B2
:1014A00037FC01222F49304805F033FC09222F492F
:1014B0002F4805F02EFC2F4B07F154041D460FCD8D
:1014C0000FC495E8070084E8070007F154030021E2
:1014D000184606F0D6FB0346274A1360274B07F150
:1014E00038041D460FCD0FC495E8070084E80700B7
:1014F00007F138030021184606F0C3FB0346204AD3
:101500001360204B07F11C041D460FCD0FC495E856
:10151000070084E8070007F11C030021184606F0C5
:10152000B0FB0346184A1360184B3C461D460FCDCE
:101530000FC495E8070084E807003B4600211846E1
:1015400006F09FFB0346124A136006F093FBFEE78A
:10155000B806002019FCFFFF40040020880400208A
:10156000D0040020CC060020A0050020A00600200A
:10157000E4050020689300082806002084930008F2
:101580002C060020A093000830060020BC93000821
:101590003406002080B594B000AF07F1200330225C
:1015A0000021184607F0F0FD07F10C0300221A6035
:1015B0005A609A60DA601A610023BB60284B1B6C8A
:1015C000274A43F080531364254B1B6C03F0805370
:1015D000BB60BB6800237B60224B1B68214A43F43D
:1015E000804313601F4B1B6803F480437B607B6860
:1015F00001233B624FF480337B620223BB634FF4D1
:101600008003FB6304233B64A8237B640223BB6445
:101610000423FB6407F12003184603F095FD0346FD
:10162000002B01D001F0A2FE0F23FB6002233B61DF
:1016300000237B614FF4A053BB614FF48053FB61E7
:1016400007F10C030521184603F0F6FF0346002BB3
:1016500001D001F08BFE00BF5037BD4680BD00BFFA
:10166000003802400070004080B584B000AF3B46B7
:1016700000221A605A609A60DA60214B214A1A608F
:101680001F4B4FF480325A601D4B00229A601C4B56
:1016900000221A611A4B00221A76194B002283F895
:1016A0002020174B0022DA62154B174A9A62144B1E
:1016B0000022DA60124B0122DA61114B002283F81A
:1016C00030200F4B01225A610D4802F047FA0346C1
:1016D000002B01D001F04AFE06233B6001237B6012
:1016E0000723BB603B461946054802F0A9FB0346A9
:1016F000002B01D001F03AFE00BF1037BD4680BD7F
:1017000098030020002001400100000F80B586B042
:1017100000AF07F1080300221A605A609A60DA608D
:101720003B4600221A605A601D4B4FF080421A60FF
:101730001B4B53225A601A4B00229A60184B40F2FE
:10174000E732DA60164B00221A61154B00229A61CB
:10175000134804F0C3F90346002B01D001F006FE44
:101760004FF48053BB6007F1080319460C4804F09E
:1017700061FD0346002B01D001F0F8FD00233B6022
:1017800000237B603B461946054805F053F90346A4
:10179000002B01D001F0EAFD00BF1837BD4680BD27
:1017A0004004002080B58EB000AF07F1280300226E
:1017B0001A605A609A60DA6007F1200300221A600A
:1017C0005A603B1D00221A605A609A60DA601A6102
:1017D0005A619A61324B334A1A60314B53225A6034
:1017E0002F4B00229A602E4B40F2E732DA602C4BEE
:1017F00000221A612A4B00229A61294804F06EF9EE
:101800000346002B01D001F0B1FD4FF48053BB62C1
:1018100007F128031946224804F00CFD0346002B6B
:1018200001D001F0A3FD1E4804F018FA0346002B76
:1018300001D001F09BFD00233B6200237B6207F196
:1018400020031946164805F0F5F80346002B01D091
:1018500001F08CFD60237B600023BB600023FB60F4
:1018600000237B613B1D042219460D4804F020FC37
:101870000346002B01D001F079FD3B1D08221946DB
:10188000074804F015FC0346002B01D001F06EFD63
:10189000034801F067FE00BF3837BD4680BD00BF7A
:1018A000880400200004004080B58EB000AF07F12E
:1018B000280300221A605A609A60DA6007F1200358
:1018C00000221A605A603B1D00221A605A609A601A
:1018D000DA601A615A619A61324B334A1A60314BAD
:1018E00053225A602F4B00229A602E4B40F2E7326F
:1018F000DA602C4B00221A612A4B00229A61294897
:1019000004F0ECF80346002B01D001F02FFD4FF45A
:101910008053BB6207F128031946224804F08AFC71
:101920000346002B01D001F021FD1E4804F096F97A
:101930000346002B01D001F019FD00233B62002378
:101940007B6207F120031946164805F073F8034639
:10195000002B01D001F00AFD60237B600023BB60F7
:101960000023FB6000237B613B1D042219460D48C8
:1019700004F09EFB0346002B01D001F0F7FC3B1D59
:1019800008221946074804F093FB0346002B01D0B8
:1019900001F0ECFC034801F0E5FD00BF3837BD461F
:1019A00080BD00BFD00400200008004080B500AF1B
:1019B000124B134A1A60114B4FF4E1325A600F4B2D
:1019C0004FF480529A600D4B0022DA600B4B4FF4BB
:1019D000C0621A61094B0C225A61084B00229A61BD
:1019E000064B0022DA61054805F0B4F80346002BE7
:1019F00001D001F0BBFC00BF80BD00BF1805002076
:101A0000004C004080B500AF124B134A1A60114BD6
:101A10004FF4E1325A600F4B4FF480529A600D4BF5
:101A20000022DA600B4B4FF480621A61094B0C22E2
:101A30005A61084B00229A61064B0022DA61054880
:101A400005F088F80346002B01D001F08FFC00BFA1
:101A500080BD00BF5C0500200010014080B500AFD4
:101A6000114B124A1A60104B4FF4E1325A600E4B80
:101A700000229A600C4B0022DA600B4B00221A61A4
:101A8000094B0C225A61084B00229A61064B002236
:101A9000DA61054805F05EF80346002B01D001F03D
:101AA00065FC00BF80BD00BFA005002000440040D1
:101AB00080B500AF114B124A1A60104B4FF416520A
:101AC0005A600E4B00229A600C4B0022DA600B4BDE
:101AD00000221A61094B0C225A61084B00229A61BC
:101AE000064B0022DA61054805F034F80346002B66
:101AF00001D001F03BFC00BF80BD00BFE405002029
:101B00000048004080B582B000AF00237B600C4BE2
:101B10001B6B0B4A43F480031363094B1B6B03F4E9
:101B200080037B607B6800220521382002F0E0FC06
:101B3000382002F0F9FC00BF0837BD4680BD00BF69
:101B40000038024080B58CB000AF07F11C030022C2
:101B50001A605A609A60DA601A610023BB616D4BAB
:101B60001B6B6C4A43F0800313636A4B1B6B03F0DF
:101B70008003BB61BB6900237B61664B1B6B654ABD
:101B800043F001031363634B1B6B03F001037B61A1
:101B90007B6900233B615F4B1B6B5E4A43F0100384
:101BA00013635C4B1B6B03F010033B613B69002329
:101BB000FB60584B1B6B574A43F002031363554BB2
:101BC0001B6B03F00203FB60FB680023BB60514BFF
:101BD0001B6B504A43F0080313634E4B1B6B03F01F
:101BE0000803BB60BB6800237B604A4B1B6B494A00
:101BF00043F004031363474B1B6B03F004037B6048
:101C00007B6800221221444803F052FA00224FF46C
:101C10000041424803F04CFA00224FF48051404802
:101C200003F046FA1223FB6101233B6200237B622F
:101C30000023BB6207F11C031946374803F084F800
:101C4000A023FB6100233B6201237B6207F11C039D
:101C50001946314803F078F84FF40043FB61012343
:101C60003B6200237B620023BB6207F11C03194621
:101C70002A4803F069F84FF48053FB6101233B626B
:101C800000237B620023BB6207F11C031946244832
:101C900003F05AF84FF40053FB6100233B62012329
:101CA0007B6207F11C0319461D4803F04DF84FF401
:101CB0000043FB6100233B6200237B6207F11C03AE
:101CC0001946184803F040F84023FB614FF488138D
:101CD0003B6200237B6207F11C031946124803F0A4
:101CE00033F84FF48053FB6100233B6201237B6296
:101CF00007F11C0319460C4803F026F800220521C1
:101D0000172002F0F5FB172002F00EFC00BF303761
:101D1000BD4680BD00380240000002400010024075
:101D200000040240000C02400008024080B588B068
:101D300008AF1D4B37221A601C4B02221A6020216B
:101D40001B4803F09DF90346002B26D1164B0022B9
:101D50001A604FF47A7005F0E0FF144B00221A600D
:101D6000144B00221A604FF4167307930023069356
:101D700001230593002304934FF416730393002368
:101D8000029301230193002300934FF41673002262
:101D900001210020FFF766FA03E0012005F0BDFFF6
:101DA000CDE7BD4680BD00BF4406002040060020B0
:101DB000000002408806002080B500AF274B9B78CA
:101DC000802B0BD1264B1B78002B07D1254B1B6892
:101DD0000233244A1360224B01221A701F4B9B7856
:101DE000202B0BD11E4B1B78002B07D11D4B1B68E2
:101DF000023B1C4A13601A4B01221A70174B9B7846
:101E0000002B02D1164B00221A70164B1B68164A83
:101E10001360164B1B88B3F5FA6F0BD9134B1B8855
:101E200040F6E342934205D8114B1B780133DAB2F6
:101E30000F4B1A700E4B1B78142BBFD90D4B002281
:101E40001A604FF47A7005F068FF0B4B00221A609D
:101E50000A4B00221A6000BF80BD00BFAC06002004
:101E6000FB0600201000002038060020E4060020B9
:101E7000FC060020440600204006002088060020C2
:101E800080B500AF4FF480510A4803F0F9F80346DB
:101E9000002BF7D1084B00221A604FF47A7005F03E
:101EA0003CFF064B00221A60054B00221A6000BF5F
:101EB00080BD00BF0008024044060020400600200C
:101EC0008806002080B582B000AF0346FB80FB8807
:101ED000402B12D14FF400410A4803F0D1F80346D9
:101EE000002B05D1084B1B680133074A136004E03F
:101EF000054B1B68013B044A136000BF0837BD4611
:101F000080BD00BF000C024064070020B0B500AFE8
:101F1000A44B1A68A44B1B68D31A1846FEF7AAFAFA
:101F200002460B46A149C1E90023A14BD3E90001B8
:101F30009E4BD3E90023FEF707FB02460B469D4963
:101F4000C1E900239C4BD3E90001984BD3E900235E
:101F5000FEF7FAFA02460B4610461946974BD3E9AC
:101F60000023FEF7F1FA02460B4610461946944B41
:101F7000D3E90023FEF732F902460B469149C1E945
:101F80000023914B1B681846FEF774FA8D4BD3E97A
:101F90000023FEF74BFD0346002B0AD08A4B1B683B
:101FA0001846FEF767FA02460B468649C1E9002348
:101FB00016E0864B1B681846FEF75CFA814BD3E9A6
:101FC0000023FEF751FD0346002B09D07F4B1B6811
:101FD0001846FEF74FFA02460B467A49C1E900233C
:101FE000724BD3E900017A4BD3E90023FEF7F4F8F2
:101FF00002460B4610461946764BD3E90023FEF7FE
:10200000A3FA02460B46104619466C4BD3E900234F
:10201000FEF7C4FB02460B466F49C1E900236F4B34
:10202000D3E900234FF000006D49FEF7D5F80246D2
:102030000B46104619466B4BD3E90023FEF784FA92
:1020400002460B4614461D46674BD3E90001624B1E
:10205000D3E90023FEF778FA02460B4620462946CC
:10206000FEF7BCF802460B466049C1E900234F4B1E
:10207000D3E900235649C1E90023524BD3E9002399
:102080004F49C1E90023594BD3E900235549C1E920
:102090000023484BD3E90001544BD3E90023FEF75A
:1020A0009DF802460B4610461946464BD3E90023DD
:1020B000FEF794F802460B464D49C1E900234D4B0B
:1020C0001B681846FEF7D6F9494BD3E90023FEF703
:1020D000ADFC0346002B0AD0464B1B681846FEF7A2
:1020E000C9F902460B464249C1E9002316E0424BBA
:1020F0001B681846FEF7BEF93D4BD3E90023FEF7F7
:10210000B3FC0346002B09D03B4B1B681846FEF777
:10211000B1F902460B463649C1E90023344BD3E9F5
:1021200000014FF000024FF00003FEF79DFC034654
:10213000002B04D0314B4FF0FF321A6012E02C4BD1
:10214000D3E900014FF000024FF00003FEF76EFCF0
:102150000346002B03D0294B01221A6002E0274BD3
:1021600000221A60224BD3E9002310461946FEF7DD
:1021700085FC0346002BB8BF5B42214A1360204B0D
:102180001A68204B1B689A4242DA084BD3E90001D7
:102190004FF000024FF00003FEF73EFC0346002B19
:1021A00032D035E01007002064070020000700202F
:1021B0002000002018070020280000201800002020
:1021C00028070020200700203007002034070020C7
:1021D000080700203000002038070020900600206B
:1021E0000000F03F48070020380000204007002092
:1021F0005007002040000020440000205807002025
:102200005C07002048000020024B1B68024A136054
:1022100000BFB0BD480000205C07002080B483B040
:1022200000AF78603960074B1B687A689A63054B8A
:102230001B683A68DA6300BF0C37BD465DF8047B63
:10224000704700BFD004002080B582B000AF786036
:1022500039607B68B3F1FF3F04D100213868FFF794
:10226000DDFF0BE07B68012B04D139680020FFF70C
:10227000D5FF03E000210020FFF7D0FF00BF0837A3
:10228000BD4680BD80B483B000AF786039607B68A4
:10229000B3F1FF3F08D1114B1B683A68DA630F4B6B
:1022A0001B6800229A6313E07B68012B08D10B4B5B
:1022B0001B680022DA63094B1B683A689A6307E0DF
:1022C000064B1B680022DA63044B1B6800229A63EA
:1022D00000BF0C37BD465DF8047B704788040020C2
:1022E00080B582B000AF00237B6044E0274B1A68C2
:1022F000274B1B689A420CDA00224FF40041254814
:1023000002F0D6FE224B1A68204B1B68D31A7B6062
:1023100011E01E4B1A681E4B1B689A420BDD01220E
:102320004FF400411B4802F0C3FE184B1A68184BCB
:102330001B68D31A7B6000233B6014E001224FF43A
:102340008051154802F0B4FE012005F0E6FC0022A1
:102350004FF48051104802F0ABFE012005F0DDFC87
:102360003B6801333B603A687B689A42E6DB084B86
:102370001B68064A1360054B1A68054B1B689A4296
:10238000B4D100BF00BF0837BD4680BD6C07002038
:1023900070070020001002400004024080B500AF2A
:1023A0000E4B1B8819460120FFF76CFF80210C485B
:1023B00002F066FE0346002BF8D100210120FFF752
:1023C00061FF642005F0A9FC064B00221A60064B51
:1023D00001221A7000BF00BF80BD00BF4C0000206A
:1023E00000000240680700207407002080B500AF9D
:1023F000094B1B8819460120FFF744FF4FF47A6010
:1024000005F08BFC00210120FFF73CFF034B00226D
:102410001A6000BF80BD00BF4C000020680700208C
:1024200080B500AF0C4B1B8819464FF0FF30FFF70B
:1024300029FF4FF40051094802F022FE0346012B08
:10244000F7D100210120FFF71DFF054B00221A6084
:1024500000BF00BF80BD00BF4C0000200004024050
:102460006807002080B500AFFFF798FF0B4B1B7883
:10247000002B10D00A4B40F2B6321A60FFF730FF43
:10248000064B00221A70064B00221A60FFF728FF45
:10249000044B01221A7000BF80BD00BF74070020EA
:1024A000700700207507002080B58AB008AF7860FB
:1024B0004FF48051944802F0E3FD03461A46934BD3
:1024C0001A70934B5B78802B31D1914B9B78002B0A
:1024D0002DD1904B00221A608F4B00221A604FF4CE
:1024E0009673079300230693012305930023049317
:1024F000C823039300230293012301930023009335
:102500004FF4C873002201210020FEF7ABFE4FF408
:102510007A7005F002FCFFF7A5FF804B1B78002BBB
:1025200005D00120FEF75EFF7C4B00221A70784B2D
:102530005B78402B34D1764B9B78002B30D1754B98
:1025400000221A60744B00221A604FF496730793AE
:10255000002306930123059300230493C8230393C8
:102560000023029301230193002300934FF4C873C7
:10257000002201210020FEF775FE4FF47A7005F06D
:10258000CCFBFFF76FFF634B00221A60634B1B7895
:10259000002B05D00220FEF725FF604B00221A70A9
:1025A0005B4B5B78202B34D1594B9B78002B30D17F
:1025B000584B00221A60584B00221A604FF4967351
:1025C0000793002306930123059300230493C82354
:1025D00003930023029301230193002300934FF4FC
:1025E000C873002201210020FEF73CFE4FF47A70F0
:1025F00005F093FBFFF736FF464B00221A60474B6E
:102600001B78002B05D00320FEF7ECFE434B002285
:102610001A703F4B5B78042B34D13D4B9B78002BD9
:1026200030D13C4B00221A603B4B00221A604FF421
:1026300096730793002306930123059300230493C5
:10264000C8230393002302930123019300230093E3
:102650004FF4C873002201210020FEF703FE4FF45F
:102660007A7005F05AFBFFF7FDFE2A4B00221A6034
:102670002A4B1B78002B05D00620FEF7B3FE274B14
:1026800000221A70224B5B78002B27D1204B9B78BD
:10269000402B23D1142005F040FB1D4B5B78002B11
:1026A0001CD11B4B9B78402B18D11D4B1B78013341
:1026B000DAB21B4B1A701B4B00221A70184B1B7896
:1026C000032B02D9164B00221A7000BF104B5B7807
:1026D000002B03D10E4B9B78402BF7D00C4BDB79B2
:1026E000802B40F06781104B1B68002B40F062810B
:1026F0000E4B00221A700E4B1B78002B1CD10D4B79
:1027000002221A604DE100BF00080240600700206D
:10271000AC06002088060020400600207507002037
:10272000790700208E060020BC06002076070020D6
:1027300077070020680700208B4B1B78012B40F0A7
:10274000AD808A4B03221A60894B00221A60894BA4
:1027500000221A604FF49673079300230693012317
:102760000593002304934FF496730393002302937D
:1027700001230193002300934FF49673002201215B
:102780000020FEF76FFD41F2941005F0C6FA7A4B77
:1027900006221A60764B01221A60784B8C221A604E
:1027A00042F2080005F0B9FA744B00221A604FF4A7
:1027B000FA7005F0B2FA6E4B00221A606D4B0022DF
:1027C0001A606F4B1B68C3F196039BB25B0099B212
:1027D0006B4B1B68C3F196039BB25B009BB2684ACC
:1027E0001268963292B2520092B20792002206927A
:1027F00001220592002204920393002302930123F5
:102800000193002300930B46002201210020FEF7D4
:1028100029FD4FF47A7005F080FA4FF49673079310
:102820000023069301230593002304934FF496732A
:1028300003930023029301230193002300934FF499
:102840009673002201210020FEF70CFD4FF4FA6080
:1028500005F063FA4FF416730793002306930123E0
:102860000593002304934FF4C8730393002302934A
:102870000123019300230093C8230022012100209B
:10288000FEF7F0FC4FF4FA6005F047FA3D4B6FF0AD
:102890002C021A60374B01221A6082E0324B1B78FF
:1028A000022B09D1324B00221A60324B00221A60EF
:1028B000354B364A1A6074E02B4B1B78032B09D139
:1028C0002B4B00221A602B4B00221A60274B02224E
:1028D0001A6066E0244B1B78042B5BD1244B00224A
:1028E0001A60244B00221A604FF49673079300235A
:1028F000069301230593002304934FF496730393E7
:102900000023029301230193002300934FF4967355
:10291000002201210020FEF7A5FC4FF47A7005F09B
:10292000FCF91B4B1B68144A1360114B01221A60FF
:10293000124B14221A60FFF7A3FA134B6FF0270211
:102940001A604FF47A7005F0E8F9094B01221A6019
:102950000A4B19221A604FF47A7005F0DEF9074B22
:1029600000221A601DE000BF7707002068070020E2
:10297000400600208806002038060020440600207B
:10298000500600204C060020100700200CFEFFFF20
:10299000B8060020944B1B78052B02D1934B0322E1
:1029A0001A60914B1B780133DAB28F4B1A70904B3F
:1029B00001221A608F4BDB79402B70D18C4B1B6846
:1029C000002B6CD18C4B1B78002B31D18B4B1B68AF
:1029D0008B4A13608B4B01221A708B4B00221A60BA
:1029E0008A4B00221A604FF4167307930023069354
:1029F00001230593002304934FF4C873039300232A
:102A000002934FF0FF33019300230093C823002269
:102A100001210020FEF726FC4FF47A7005F07DF9C5
:102A20007B4B6FF059021A60784B01221A602DE03F
:102A3000714B1B78012B29D1744B00221A604A2359
:102A400007930023069301230593002304934A234D
:102A500003930023029301230193002300934A234D
:102A6000002201210020FEF7FDFB4FF4FA6005F083
:102A700054F9684B1B68684A1360FFF757F9644BB9
:102A80006FF059021A60614B01221A605A4B1B7891
:102A90000133DAB2584B1A70554B01221A60554B6C
:102AA000DB79202B5CD1524B1B68002B58D1554B46
:102AB00002221A70544B00221A60544B00221A60F2
:102AC000554B6FF059021A604FF4167307930023A9
:102AD000069301230593002304934FF41673039385
:102AE0000023029301230193002300934FF41673F4
:102AF000002201210020FEF7B5FB4FF4FA6005F03B
:102B00000CF9464B1B68444A1360454B23221A605C
:102B10003D4B03221A604FF4FA6005F0FEF8FFF710
:102B20004BF94FF416730793002306930123059383
:102B3000002304934FF4167303930023029301239D
:102B40000193002300934FF416730022012100200B
:102B5000FEF788FB334B00221A70254B01221A60C6
:102B6000244BDB79102B40F0CF80214B1B68002BCE
:102B700040F0CA802C4B1B78002B57D1224B0022EF
:102B80001A60224B00221A604FF416730793002339
:102B9000069301230593002304934FF416730393C4
:102BA0000023029301230193002300934FF4167333
:102BB000002201210020FEF755FB4FF47A7005F04A
:102BC000ACF8164B1B68144A1360154B16221A609A
:102BD0000D4B03221A604FF4487005F09EF8104B1D
:102BE00000221A608DE000BF7707002068070020F0
:102BF000BC060020AC0600207807002064070020F7
:102C000010070020760700204006002088060020DC
:102C10004C060020B80600203806002010000020D6
:102C200044060020FC06002079070020984B1B7802
:102C3000012B2ED1974B01221A70974B00221A605C
:102C4000964B00221A604FF41673079300230693E5
:102C500001230593002304934FF4C87303930023C7
:102C600002934FF0FF33019300230093C823002207
:102C700001210020FEF7F6FA4FF47A7005F04DF8C6
:102C8000874B1B680133864A1360844B01221A600C
:102C900037E07F4B1B78022B33D17F4B00221A6029
:102CA0007E4B00221A604FF496730793002306931D
:102CB00001230593002304934FF496730393002399
:102CC000029301230193002300934FF49673002293
:102CD00001210020FEF7C6FA4FF47A7005F01DF8C6
:102CE000704B1B68704A1360704B16221A606A4B57
:102CF00005221A604FF4487005F00FF86B4B002264
:102D00001A606B4B01221A606A4BDB79082B4DD19C
:102D1000674B1B68002B49D14FF4167307930023B0
:102D2000069301230593002304934FF4C873039380
:102D3000002302934FF0FF33019300230093C82335
:102D4000002201210020FEF78DFA534B00221A6069
:102D5000524B00221A60584B1B680133564A1360CD
:102D6000554B1B68022B02DD534B01221A60524B5C
:102D70001B68002B03F00103B8BF5B42012B03D19A
:102D8000464B00221A600BE04B4B1B68022B07D10D
:102D9000434B6FF013021A60424B6FF013021A603C
:102DA0003E4B01221A60424B01221A60414BDB79F3
:102DB000042B40F0BE803E4B1B68002B40F0B980D6
:102DC000334B1B78002B34D1334B00221A60334B2A
:102DD00000221A604FF41673079300230693012311
:102DE0000593002304934FF4167303930023029377
:102DF00001230193002300934FF416730022012155
:102E00000020FEF72FFA4FF47A7004F086FF254B6E
:102E10001B68254A1360254B16221A601E4B04229C
:102E20001A604FF4487004F078FF204B00221A60BB
:102E30007CE0174B1B78012B40D1164B01221A70F6
:102E4000154B00221A60154B00221A604FF41673BE
:102E500007930023069301230593002304934FF463
:102E6000C8730393002302934FF0FF3301930023B1
:102E70000093C823002201210020FEF7F3F9084B3C
:102E80001B68013B064A1360044B01221A604DE0A7
:102E9000790700208E0600204006002088060020CA
:102EA0004C060020100000203806002044060020B8
:102EB000BC060020AC0600207C070020234B1B78BA
:102EC000022B33D1224B00221A60224B00221A60BF
:102ED0004FF4967307930023069301230593002371
:102EE00004934FF4967303930023029301230193F9
:102EF000002300934FF49673002201210020FEF777
:102F0000B1F94FF47A7004F008FF134B1B68134AB1
:102F10001360134B16221A600D4B01221A604FF4F6
:102F2000487004F0FAFE0E4B00221A600D4B01228D
:102F30001A600D4BDB79002B02D10A4B00221A607C
:102F4000012004F0EAFEFFF7B3BA00BF79070020C2
:102F500040060020880600201000002038060020CF
:102F600044060020BC060020AC06002080B582B0DC
:102F700000AF78600D4B1B680D4A93420AD00D4B91
:102F800001225A6002210C4802F0ABF8322004F012
:102F9000C4FEEFE7074B00225A600221064802F008
:102FA000A0F84FF4FA7004F0B8FEE3E7B80600208A
:102FB00019FCFFFF980600200000024080B582B097
:102FC00000AF78600C4B1B68012B02D1FFF7E6F9CC
:102FD0000CE0094B1B68022B02D1FFF721FA05E038
:102FE000054B1B68032B01D1FFF700FAFFF778F9B7
:102FF000012004F092FEE5E768070020F0B58BB0F1
:1030000008AF78602A4B1B682A4A12681146184696
:10301000FFF71AF901222849284800F0E3FD284B60
:103020001B68B3F57A7F02DD254B00221A60254B21
:103030001B68012B4CD1244B1B689CB2234B1B6893
:103040009BB21A469B00D31A9BB203F596739DB2AE
:103050001D4B1B689BB21D4A126892B2114692002A
:103060008A1A92B202F5967292B21749096889B229
:103070001648006880B206467600304480B200F5FB
:10308000967080B2079006914FF0FF3105910121B3
:103090000491039202934FF0FF33019301230093B5
:1030A0002B4622464FF0FF310120FEF7DBF812E0FD
:1030B000580700205C070020E40600209803002049
:1030C0001007002040060020440600205006002083
:1030D000012004F022FE884B1B68042B35D1874B5E
:1030E0001B6898B2864B1B689BB21A465200134469
:1030F0005B009BB203F516739CB2804B1B689BB2BE
:103100007F4A126892B2114692008A1A520092B215
:1031100002F5167292B27949096889B24FF41675B0
:1031200007950691012105910121049103920293D3
:10313000012301930123009323460246012101202C
:10314000FEF790F8012004F0E8FD6E4B1B68012BA0
:1031500021D16D4B1B685C426C4B1D886A4B1B6810
:103160006A4A1288684909684942684800884FF4E9
:103170001676079606900591022104914FF4C871C6
:1031800003910292019302230093C8232A46214609
:103190000220FEF767F8584B1B68022B2DD1574BC6
:1031A0001B689CB2564B1B689BB24A339DB2534B73
:1031B0001B689BB2524A126892B24A3292B24F498D
:1031C000096889B24E48006880B2C0F14A0080B2F6
:1031D0000790069101210591012104910392029328
:1031E00001230193012300932B4622460121012054
:1031F000FEF738F8012004F090FD3F4B1B68032BCD
:1032000038D13E4B1B6898B23D4B1B689BB21A46A7
:103210009B00D31A5B009BB203F516739CB2374B2D
:103220001B689BB2364A126892B2114649000A44A2
:10323000520092B202F5167292B23049096889B210
:103240004FF41675079506914FF0FF310591012156
:103250000491039202934FF0FF33019301230093F3
:10326000234602464FF0FF310120FDF7FBFF01200E
:1032700004F053FD204B1B68052B7FF4C3AE1F4B9E
:103280001B689CB21E4B1B689BB21A46520013442B
:103290009BB203F596739DB2184B1B689BB2184AFC
:1032A000126892B2114649000A4492B202F596722F
:1032B00092B21249096889B21148006880B2064684
:1032C0008000301A80B200F5967080B207900691A7
:1032D000012105910121049103920293012301939D
:1032E000012300932B46224601210120FDF7BAFF5E
:1032F000012004F012FD85E640060020440600206F
:103300005006002088060020480600208C06002079
:1033100080B582B000AF78607B681B680E4A93422C
:1033200001D100F0D7FB7B681B68B3F1804F0ED151
:103330000A4B1B680A4A13600A4B1A68084B1B6841
:10334000D31A094A1360FDF75FFDFEF7DFFD00BFEA
:103350000837BD4680BD00BF00200040B8060020F1
:103360003C060020380600205006002080B400AF44
:1033700072B600BFFEE7000080B582B000AF002348
:103380007B60124B5B6C114A43F4804353640F4BD8
:103390005B6C03F480437B607B6800233B600B4BDA
:1033A0001B6C0A4A43F080531364084B1B6C03F0F8
:1033B00080533B603B6800220F216FF0010001F059
:1033C00097F800BF0837BD4680BD00BF00380240F7
:1033D00080B58AB000AF786007F1140300221A604C
:1033E0005A609A60DA601A617B681B682F4A9342C0
:1033F00057D100233B612E4B5B6C2D4A43F4807305
:1034000053642B4B5B6C03F480733B613B6900237B
:10341000FB60274B1B6B264A43F001031363244BCD
:103420001B6B03F00103FB60FB6840237B610323FC
:10343000BB610023FB6107F1140319461D4801F02D
:1034400083FC1D4B1D4A1A601B4B00225A601A4B0D
:1034500000229A60184B0022DA60174B4FF480620A
:103460001A61154B4FF400625A61134B4FF400522E
:103470009A61114B4FF48072DA610F4B00221A628D
:103480000D4B00225A620C4801F05CF80346002BF9
:1034900001D0FFF76BFF7B68074A9A63064A7B6897
:1034A000936300BF2837BD4680BD00BF00200140A8
:1034B0000038024000000240E00300201064024097
:1034C00080B586B000AF78607B681B68B3F1804F31
:1034D00016D100237B61204B1B6C1F4A43F0010374
:1034E00013641D4B1B6C03F001037B617B6900229D
:1034F00005211C2000F0FCFF1C2001F015F826E03F
:103500007B681B68154A93420ED100233B61124B26
:103510001B6C114A43F0020313640F4B1B6C03F046
:1035200002033B613B6912E07B681B680C4A9342D3
:103530000DD10023FB60084B1B6C074A43F00403CA
:103540001364054B1B6C03F00403FB60FB6800BFB6
:103550001837BD4680BD00BF00380240000400405F
:103560000008004080B58AB000AF786007F114030E
:1035700000221A605A609A60DA601A617B681B68E0
:10358000254A93421FD100233B61244B1B6B234AE6
:1035900043F004031363214B1B6B03F004033B61F3
:1035A0003B694FF4C0737B610223BB610023FB6165
:1035B00000233B6202237B6207F11403194618487B
:1035C00001F0C2FB23E07B681B68164A93421ED1C0
:1035D0000023FB60114B1B6B104A43F0080313637D
:1035E0000E4B1B6B03F00803FB60FB684FF4C043FA
:1035F0007B610223BB610023FB6100233B6202234A
:103600007B6207F114031946074801F09DFB00BFD8
:103610002837BD4680BD00BF00040040003802408E
:103620000008024000080040000C024080B590B045
:1036300000AF786007F12C0300221A605A609A608C
:10364000DA601A617B681B68804A93424BD1002381
:10365000BB627F4B1B6C7E4A43F4002313647C4B9C
:103660001B6C03F40023BB62BB6A00237B62784BB4
:103670001B6B774A43F001031363754B1B6B03F01D
:1036800001037B627B6A00233B62714B1B6B704AB8
:1036900043F0040313636E4B1B6B03F004033B62A4
:1036A0003B6A0123FB6202233B6300237B6303230A
:1036B000BB630823FB6307F12C031946654801F03F
:1036C00043FB4FF40063FB6202233B6300237B63F5
:1036D0000323BB630823FB6307F12C0319465E48F1
:1036E00001F032FBAEE07B681B685C4A934235D147
:1036F0000023FB61564B5B6C554A43F01003536447
:10370000534B5B6C03F01003FB61FB690023BB614F
:103710004F4B1B6B4E4A43F0010313634C4B1B6B27
:1037200003F00103BB61BB694FF4C063FB6202237A
:103730003B6300237B630323BB630723FB6307F126
:103740002C031946434801F0FFFA002205212520E9
:1037500000F0CEFE252000F0E7FE73E07B681B68DA
:103760003F4A934234D100237B61394B1B6C384A6A
:1037700043F400331364364B1B6C03F400337B615A
:103780007B6900233B61324B1B6B314A43F00103E1
:1037900013632F4B1B6B03F001033B613B690C234D
:1037A000FB6202233B6300237B630323BB6307238A
:1037B000FB6307F12C031946264801F0C5FA0022E5
:1037C0000521262000F094FE262000F0ADFE39E011
:1037D0007B681B68234A934234D10023FB601C4B57
:1037E0001B6C1B4A43F480231364194B1B6C03F4BA
:1037F0008023FB60FB680023BB60154B1B6B144AE6
:1038000043F002031363124B1B6B03F00203BB6014
:10381000BB684FF44063FB6202233B6300237B637E
:103820000323BB630723FB6307F12C0319460E48F0
:1038300001F08AFA00220521272000F059FE2720F6
:1038400000F072FE00BF4037BD4680BD004C004016
:103850000038024000000240000802400010014011
:1038600000440040004800400004024080B58EB093
:1038700000AF78600023FB620023BB620023FB6083
:10388000334B1B6C324A43F480731364304B1B6C14
:1038900003F48073FB60FB6807F1100207F1140367
:1038A0001146184602F0E8F83B6AFB62FB6A002BFF
:1038B00003D102F0B9F8786304E002F0B5F80346EA
:1038C0005B007B637B6B234AA2FB03239B0C013BC6
:1038D000BB62214B214A1A601F4B40F2E732DA608B
:1038E0001D4ABB6A53601C4B00221A611A4B00220E
:1038F0009A60194B00229A61174802F0EFF80346CC
:1039000087F8333097F83330002B1BD1124802F080
:1039100035F9034687F8333097F83330002B11D14F
:103920002D2000F001FE7B680F2B08D8002279685B
:103930002D2000F0DDFD0A4A7B68136002E00123C0
:1039400087F8333097F8333018463837BD4680BD96
:103950000038024083DE1B43800700200020004027
:103960005400002080B400AFFEE780B400AFFEE753
:1039700080B400AFFEE780B400AFFEE780B400AFD4
:10398000FEE780B400AF00BFBD465DF8047B704722
:1039900080B500AF402001F0BFFB00BF80BD00003C
:1039A00080B500AF024802F07BFA00BF80BD00BFC7
:1039B0004004002080B500AF024803F0DBF900BFEF
:1039C00080BD00BF5C05002080B500AF024803F059
:1039D000D1F900BF80BD00BFA005002080B500AFB9
:1039E000024803F0C7F900BF80BD00BFE405002016
:1039F00080B500AF024802F053FA00BF80BD00BF9F
:103A00008007002080B500AF024800F033FF00BF00
:103A100080BD00BFE003002080B400AF064BD3F8A8
:103A20008830054A43F47003C2F8883000BFBD46B1
:103A30005DF8047B704700BF00ED00E0DFF834D094
:103A40000D480E490E4A002302E0D458C4500433F6
:103A5000C4188C42F9D30B4A0B4C002301E01360CD
:103A60000432A242FBD3FFF7D7FF05F067FBFDF757
:103A7000E3FC70470000022000000020C40000208A
:103A800070940008C800002028450020FEE70000D0
:103A900080B500AF0E4B1B680D4A43F400731360F2
:103AA0000B4B1B680A4A43F480631360084B1B6886
:103AB000074A43F480731360032000F00EFD0F20CB
:103AC000FFF7D4FEFFF758FC0023184680BD00BF67
:103AD000003C024080B400AF064B1B781A46064BF0
:103AE0001B681344044A136000BFBD465DF8047BA5
:103AF000704700BF58000020C807002080B400AF06
:103B0000034B1B681846BD465DF8047B704700BF39
:103B1000C807002080B584B000AF7860FFF7EEFFE3
:103B2000B8607B68FB60FB68B3F1FF3F05D00A4BD0
:103B30001B781A46FB681344FB6000BFFFF7DEFFEB
:103B40000246BB68D31AFA689A42F7D800BF00BF92
:103B50001037BD4680BD00BF5800002080B584B03E
:103B600000AF78600023FB737B68002B01D1012339
:103B700033E07B681B6C002B09D17868FFF728FCC9
:103B80007B6800225A647B68002283F83C207B68B3
:103B90001B6C03F01003002B18D17B681B6C23F403
:103BA000885323F0020343F002027B681A647868AA
:103BB00000F068FA7B6800225A647B681B6C23F073
:103BC000030343F001027B681A6401E00123FB73E5
:103BD0007B68002283F83C20FB7B18461037BD46EB
:103BE00080BD000080B586B000AFF860B9607A6033
:103BF00000233B61FB6893F83C30012B01D1022389
:103C0000E9E0FB68012283F83C20FB681B689B68A5
:103C100003F00103012B18D0FB681B689A68FB684E
:103C20001B6842F001029A606D4B1B686D4AA2FB53
:103C300003239A0C13465B0013443B6102E03B698B
:103C4000013B3B613B69002BF9D1FB681B689B681A
:103C500003F48073B3F5807F07D1FB681B689A6813
:103C6000FB681B6822F480729A60FB681B689B6883
:103C700003F00103012B40F0A180FB681B6C23F4CF
:103C8000E06323F0010343F48072FB681A64FB686D
:103C90001B685B6803F48063002B07D0FB681B6C18
:103CA00023F4405343F48052FB681A64FB681B6C96
:103CB00003F48053B3F5805F06D1FB685B6C23F09F
:103CC0000602FB685A6402E0FB6800225A64FB6843
:103CD000002283F83C20444B7B61FB689B6B434A8A
:103CE000DA63FB689B6B424A1A64FB689B6B414A30
:103CF000DA64FB681B686FF022021A60FB681B68BD
:103D00005A68FB681B6842F080625A60FB681B6857
:103D10009A68FB681B6842F480729A60FB68986B33
:103D2000FB681B684C331946BA687B6800F0B8FC26
:103D30007B695B6803F01F03002B2AD1FB681B68BB
:103D40002D4A934215D0FB681B682C4A934205D13B
:103D5000254B5B6803F01F03002B0AD0FB681B6830
:103D6000274A934236D1204B5B6803F01003002BA7
:103D700030D1FB681B689B6803F04053002B29D1AE
:103D8000FB681B689A68FB681B6842F080429A6077
:103D900020E0FB681B68184A93421BD1FB681B6834
:103DA0009B6803F04053002B14D1FB681B689A6892
:103DB000FB681B6842F080429A600BE0FB681B6C5A
:103DC00043F01002FB681A64FB685B6C43F001026D
:103DD000FB685A64002318461837BD4680BD00BFF3
:103DE0005000002083DE1B43002301407D42000879
:103DF00037430008534300080020014000210140E0
:103E00000022014080B483B000AF786000BF0C375F
:103E1000BD465DF8047B704780B483B000AF786026
:103E200000BF0C37BD465DF8047B704780B483B09B
:103E300000AF786000BF0C37BD465DF8047B70476B
:103E400080B485B000AF786039600023BB607B68C8
:103E500093F83C30012B01D1022305E17B6801225C
:103E600083F83C203B681B68092B25D97B681B68BD
:103E7000D9683B681B689BB21A4613465B00134423
:103E80001E3B072202FA03F3DA437B681B680A40F1
:103E9000DA607B681B68D9683B689A683B681B6876
:103EA0009BB2184603465B0003441E3B9A407B6866
:103EB0001B680A43DA6022E07B681B6819693B686B
:103EC0001B689BB21A4613465B001344072202FA92
:103ED00003F3DA437B681B680A401A617B681B683E
:103EE00019693B689A683B681B689BB21846034691
:103EF0005B0003449A407B681B680A431A613B6875
:103F00005B68062B24D87B681B68596B3B685A6832
:103F100013469B001344053B1F2202FA03F3DA43C6
:103F20007B681B680A405A637B681B68596B3B6857
:103F30001B689BB218463B685A6813469B001344A3
:103F4000053B00FA03F27B681B680A435A634CE0A6
:103F50003B685B680C2B24D87B681B68196B3B683B
:103F60005A6813469B001344233B1F2202FA03F3B3
:103F7000DA437B681B680A401A637B681B68196B0D
:103F80003B681B689BB218463B685A6813469B0007
:103F90001344233B00FA03F27B681B680A431A634D
:103FA00023E07B681B68D96A3B685A6813469B000C
:103FB0001344413B1F2202FA03F3DA437B681B6878
:103FC0000A40DA627B681B68D96A3B681B689BB24F
:103FD00018463B685A6813469B001344413B00FA5D
:103FE00003F27B681B680A43DA62224BFB607B6842
:103FF0001B68214A934209D13B681B68122B05D1EB
:10400000FB685B6843F48002FB685A607B681B684E
:10401000194A934223D13B681B68102B03D03B689D
:104020001B68112B1BD1FB685B6843F40002FB6823
:104030005A603B681B68102B11D1104B1B68104A4B
:10404000A2FB03239A0C13469B0013445B00BB6046
:1040500002E0BB68013BBB60BB68002BF9D17B6809
:10406000002283F83C20002318461437BD465DF833
:10407000047B7047002301400020014050000020D5
:1040800083DE1B4380B485B000AF7860794BFB6062
:10409000FB685B6823F44032FB685A60FB685A682F
:1040A0007B685B681A43FB685A607B681B685A68C8
:1040B0007B681B6822F480725A607B681B685968B1
:1040C0007B681B691A027B681B680A435A607B681D
:1040D0001B685A687B681B6822F040725A607B68D4
:1040E0001B6859687B689A687B681B680A435A603A
:1040F0007B681B689A687B681B6822F400629A6080
:104100007B681B6899687B68DA687B681B680A4370
:104110009A607B689B6A584A934222D07B681B68EE
:104120009A687B681B6822F070629A607B681B68E3
:1041300099687B689A6A7B681B680A439A607B6807
:104140001B689A687B681B6822F040529A607B6803
:104150001B6899687B68DA6A7B681B680A439A6007
:104160000FE07B681B689A687B681B6822F07062AE
:104170009A607B681B689A687B681B6822F04052D3
:104180009A607B681B689A687B681B6822F0020251
:104190009A607B681B6899687B681B7E5A007B6805
:1041A0001B680A439A607B6893F82030002B1BD071
:1041B0007B681B685A687B681B6842F400625A601F
:1041C0007B681B685A687B681B6822F460425A60EF
:1041D0007B681B6859687B685B6A013B5A037B6894
:1041E0001B680A435A6007E07B681B685A687B6853
:1041F0001B6822F400625A607B681B68DA6A7B687D
:104200001B6822F47002DA627B681B68D96A7B68DB
:10421000DB69013B1A057B681B680A43DA627B682D
:104220001B689A687B681B6822F400729A607B683E
:104230001B6899687B6893F830305A027B681B686A
:104240000A439A607B681B689A687B681B6822F443
:1042500080629A607B681B6899687B685B699A02D8
:104260007B681B680A439A6000BF1437BD465DF83F
:10427000047B7047002301400100000F80B584B02B
:1042800000AF78607B689B6BFB60FB681B6C03F086
:104290005003002B3CD1FB681B6C43F40072FB689D
:1042A0001A64FB681B689B6803F04053002B2BD1FA
:1042B000FB681B7E002B27D1FB681B68DB6A03F4BD
:1042C0007003002B06D0FB681B689B6803F48063B7
:1042D000002B19D1FB681B685A68FB681B6822F029
:1042E00020025A60FB681B6C23F48072FB681A641E
:1042F000FB681B6C03F48053002B05D1FB681B6C1F
:1043000043F00102FB681A64F868FFF77BFD0EE0DA
:10431000FB681B6C03F01003002B03D0F868FFF759
:1043200085FD04E0FB689B6BDB6C7868984700BFF9
:104330001037BD4680BD80B584B000AF78607B6823
:104340009B6BFB60F868FFF767FD00BF1037BD4649
:1043500080BD80B584B000AF78607B689B6BFB60EC
:10436000FB6840221A64FB685B6C43F00402FB6844
:104370005A64F868FFF75AFD00BF1037BD4680BD8C
:1043800080B485B000AF78607B6803F00703FB6002
:104390000C4BDB68BB60BA684FF6FF031340BB6091
:1043A000FB681A02BB68134343F0BF6343F4003356
:1043B000BB60044ABB68D36000BF1437BD465DF8DC
:1043C000047B704700ED00E080B400AF044BDB6875
:1043D0001B0A03F007031846BD465DF8047B7047CF
:1043E00000ED00E080B483B000AF0346FB7197F9A5
:1043F0000730002B0BDBFB7903F01F02074997F90D
:1044000007305B09012000FA02F241F8232000BFC7
:104410000C37BD465DF8047B704700BF00E100E04B
:1044200080B483B000AF03463960FB7197F9073061
:10443000002B0ADB3B68DAB20C4997F9073012010E
:10444000D2B20B4483F800230AE03B68DAB2084991
:10445000FB7903F00F03043B1201D2B20B441A762E
:1044600000BF0C37BD465DF8047B704700E100E0FB
:1044700000ED00E080B489B000AFF860B9607A6008
:10448000FB6803F00703FB61FB69C3F10703042B1F
:1044900028BF0423BB61FB690433062B02D9FB69E7
:1044A000033B00E000237B614FF0FF32BB6902FA5F
:1044B00003F3DA43BB681A407B699A404FF0FF313F
:1044C0007B6901FA03F3D9437B680B401343184619
:1044D0002437BD465DF8047B704780B582B000AFDD
:1044E00078607868FFF74CFF00BF0837BD4680BD95
:1044F00080B586B000AF0346B9607A60FB730023D5
:104500007B61FFF761FF78617A68B9687869FFF7C6
:10451000B1FF024697F90F3011461846FFF780FFAA
:1045200000BF1837BD4680BD80B582B000AF0346DE
:10453000FB7197F907301846FFF754FF00BF0837A3
:10454000BD4680BD80B586B000AF786000237B613A
:10455000FFF7D4FA38617B68002B01D1012399E081
:104560007B68022283F835207B68002283F83420A0
:104570007B681B681A687B681B6822F001021A605E
:104580000FE0FFF7BBFA02463B69D31A052B08D9A7
:104590007B6820225A657B68032283F83520032339
:1045A00078E07B681B681B6803F00103002BE8D1EF
:1045B0007B681B681B687B617A69384B13407B61A1
:1045C0007B685A687B689B681A437B68DB681A4380
:1045D0007B681B691A437B685B691A437B689B692C
:1045E0001A437B68DB691A437B681B6A13437A6949
:1045F00013437B617B685B6A042B07D17B68DA6AB3
:104600007B681B6B13437A6913437B617B681B6870
:104610007A691A607B681B685B697B617B6923F040
:1046200007037B617B685B6A7A6913437B617B6804
:104630005B6A042B17D17B689B6A7A6913437B61A1
:104640007B68DB6A002B0ED0786800F001FB034624
:10465000002B08D07B6840225A657B68012283F8D2
:104660003520012316E07B681B687A695A617868F7
:1046700000F0B8FA0346FB607B68DB6D3F229A408E
:10468000FB689A607B6800225A657B68012283F888
:104690003520002318461837BD4680BD3F8010F0F6
:1046A00080B586B000AFF860B9607A603B600023E7
:1046B000FB75FB689B6D3B61FB6893F83430012B05
:1046C00001D1022340E0FB68012283F83420FB681B
:1046D00093F83530DBB2012B2FD1FB68022283F82F
:1046E0003520FB6800225A653B687A68B968F8682B
:1046F00000F04AFAFB68DB6D3F229A403B699A6002
:10470000FB681B681A68FB681B6842F016021A6097
:10471000FB681B6C002B07D0FB681B681A68FB68E2
:104720001B6842F008021A60FB681B681A68FB6885
:104730001B6842F001021A6005E0FB68002283F862
:1047400034200223FB75FB7D18461837BD4680BD1B
:1047500080B584B000AF78607B689B6DFB60FFF72D
:10476000CDF9B8607B6893F83530DBB2022B08D006
:104770007B6880225A657B68002283F834200123FD
:1047800052E07B681B681A687B681B6822F016027F
:104790001A607B681B685A697B681B6822F080027C
:1047A0005A617B681B6C002B03D17B689B6C002BD0
:1047B00007D07B681B681A687B681B6822F00802B8
:1047C0001A607B681B681A687B681B6822F001020C
:1047D0001A6013E0FFF792F90246BB68D31A052B63
:1047E0000CD97B6820225A657B68032283F8352028
:1047F0007B68002283F83420032315E07B681B6864
:104800001B6803F00103002BE4D17B68DB6D3F22C2
:104810009A40FB689A607B68012283F835207B68A8
:10482000002283F83420002318461037BD4680BD8F
:1048300080B483B000AF78607B6893F83530DBB22A
:10484000022B04D07B6880225A6501230CE07B6830
:10485000052283F835207B681B681A687B681B6813
:1048600022F001021A60002318460C37BD465DF89D
:10487000047B704780B586B000AF78600023BB60D2
:104880008E4B1B688E4AA2FB03239B0A7B617B68CD
:104890009B6D3B613B691B68FB607B68DB6D08229D
:1048A0009A40FB681340002B1AD07B681B681B687A
:1048B00003F00403002B13D07B681B681A687B6825
:1048C0001B6822F004021A607B68DB6D08229A40A4
:1048D0003B699A607B685B6D43F001027B685A65B7
:1048E0007B68DB6D01229A40FB681340002B12D0DD
:1048F0007B681B685B6903F08003002B0BD07B682F
:10490000DB6D01229A403B699A607B685B6D43F0E6
:1049100002027B685A657B68DB6D04229A40FB6863
:104920001340002B12D07B681B681B6803F0020346
:10493000002B0BD07B68DB6D04229A403B699A60A8
:104940007B685B6D43F004027B685A657B68DB6DB6
:1049500010229A40FB681340002B43D07B681B68F1
:104960001B6803F00803002B3CD07B68DB6D102232
:104970009A403B699A607B681B681B6803F480233C
:10498000002B18D07B681B681B6803F40023002BE6
:1049900008D17B681B6C002B24D07B681B6C78686B
:1049A00098471FE07B689B6C002B1BD07B689B6C3F
:1049B0007868984716E07B681B681B6803F480736F
:1049C000002B07D17B681B681A687B681B6822F084
:1049D00008021A607B681B6C002B03D07B681B6C81
:1049E000786898477B68DB6D20229A40FB6813400B
:1049F000002B00F08F807B681B681B6803F010039E
:104A0000002B00F087807B68DB6D20229A403B6999
:104A10009A607B6893F83530DBB2052B36D17B6822
:104A20001B681A687B681B6822F016021A607B6894
:104A30001B685A697B681B6822F080025A617B6898
:104A40001B6C002B03D17B689B6C002B07D07B6811
:104A50001B681A687B681B6822F008021A607B6872
:104A6000DB6D3F229A403B699A607B68012283F8A4
:104A700035207B68002283F834207B681B6D002B77
:104A80007ED07B681B6D7868984779E07B681B68EF
:104A90001B6803F48023002B1DD07B681B681B68F8
:104AA00003F40023002B0DD17B685B6C002B31D00D
:104AB0007B685B6C786898472CE000BF5000002052
:104AC000B5814E1B7B68DB6B002B23D07B68DB6BD7
:104AD000786898471EE07B681B681B6803F4807346
:104AE000002B0FD17B681B681A687B681B6822F05B
:104AF00010021A607B68012283F835207B6800224F
:104B000083F834207B68DB6B002B03D07B68DB6B86
:104B1000786898477B685B6D002B32D07B685B6D53
:104B200003F00103002B22D07B68052283F8352097
:104B30007B681B681A687B681B6822F001021A6098
:104B4000BB680133BB607A699A4207D37B681B68F4
:104B50001B6803F00103002BF2D100E000BF7B686B
:104B6000012283F835207B68002283F834207B689B
:104B7000DB6C002B05D07B68DB6C7868984700E025
:104B800000BF1837BD4680BD80B485B000AFF86067
:104B9000B9607A603B60FB681B681A68FB681B6839
:104BA00022F480221A60FB681B683A685A60FB682E
:104BB0009B68402B08D1FB681B687A689A60FB6889
:104BC0001B68BA68DA6007E0FB681B68BA689A601D
:104BD000FB681B687A68DA6000BF1437BD465DF871
:104BE000047B704780B485B000AF78607B681B6839
:104BF000DBB2103B144AA2FB03231B09FB60134AE0
:104C0000FB6813441B781A467B68DA65FB68032B44
:104C100009D97B681B6823F47F7323F003031A1DF3
:104C20007B689A6507E07B681B6823F47F7323F039
:104C300003037A6893657B689B6D18461437BD46FD
:104C40005DF8047B704700BFABAAAAAAF8930008DE
:104C500080B485B000AF78600023FB737B689B6AEB
:104C6000BB607B689B69002B1FD1BB68032B56D8A8
:104C700001A252F823F000BF894C00089B4C0008A9
:104C8000894C00081F4D00087B68DB6A03F08073C5
:104C9000002B46D00123FB7343E07B68DB6AB3F152
:104CA000C07F40D10123FB733DE07B689B69B3F576
:104CB000005F21D1BB68032B37D801A252F823F043
:104CC000D14C0008D74C0008D14C0008E94C000832
:104CD0000123FB7330E07B68DB6A03F08073002BF9
:104CE00025D00123FB7322E07B68DB6AB3F1C07F30
:104CF0001FD10123FB731CE0BB68022B03D9BB68E7
:104D0000032B03D018E00123FB7315E07B68DB6AFB
:104D100003F08073002B0ED00123FB730BE000BF68
:104D20000AE000BF08E000BF06E000BF04E000BFEB
:104D300002E000BF00E000BFFB7B18461437BD4611
:104D40005DF8047B704700BF80B489B000AF786025
:104D5000396000237B6100233B610023BB6100239A
:104D6000FB616BE10122FB6902FA03F37B613B68A3
:104D70001B687A6913403B613A697B699A4240F04B
:104D80005A813B685B6803F00303012B05D03B6845
:104D90005B6803F00303022B30D17B689B68BB6127
:104DA000FB695B00032202FA03F3DB43BA69134099
:104DB000BB613B68DA68FB695B0002FA03F3BA691E
:104DC0001343BB617B68BA699A607B685B68BB61AF
:104DD0000122FB6902FA03F3DB43BA691340BB61AA
:104DE0003B685B681B0903F00102FB6902FA03F3ED
:104DF000BA691343BB617B68BA695A603B685B68F8
:104E000003F00303032B17D07B68DB68BB61FB69EE
:104E10005B00032202FA03F3DB43BA691340BB6170
:104E20003B689A68FB695B0002FA03F3BA691343B3
:104E3000BB617B68BA69DA603B685B6803F00303B7
:104E4000022B23D1FB69DA087B68083253F8223041
:104E5000BB61FB6903F007039B000F2202FA03F317
:104E6000DB43BA691340BB613B681A69FB6903F015
:104E700007039B0002FA03F3BA691343BB61FB69A2
:104E8000DA087B680832B96943F822107B681B682E
:104E9000BB61FB695B00032202FA03F3DB43BA69DF
:104EA0001340BB613B685B6803F00302FB695B0076
:104EB00002FA03F3BA691343BB617B68BA691A60EB
:104EC0003B685B6803F44033002B00F0B4800023A0
:104ED000FB60604B5B6C5F4A43F4804353645D4B03
:104EE0005B6C03F48043FB60FB685B4AFB699B08D7
:104EF000023352F82330BB61FB6903F003039B00CC
:104F00000F2202FA03F3DB43BA691340BB617B68EB
:104F1000524A93422BD07B68514A934225D07B68FA
:104F2000504A93421FD07B684F4A934219D07B6806
:104F30004E4A934213D07B684D4A93420DD07B6812
:104F40004C4A934207D07B684B4A934201D10723D6
:104F50000EE008230CE006230AE0052308E0042302
:104F600006E0032304E0022302E0012300E0002323
:104F7000FA6902F0030292009340BA691343BB61DD
:104F80003549FB699B080233BA6941F823203B4B42
:104F90009B68BB613B69DB43BA691340BB613B68FB
:104FA0005B6803F48013002B03D0BA693B69134399
:104FB000BB61324ABB699360304BDB68BB613B69C4
:104FC000DB43BA691340BB613B685B6803F40013C1
:104FD000002B03D0BA693B691343BB61274ABB6905
:104FE000D360264B5B68BB613B69DB43BA69134006
:104FF000BB613B685B6803F40033002B03D0BA69E4
:105000003B691343BB611D4ABB6953601B4B1B6863
:10501000BB613B69DB43BA691340BB613B685B68BA
:1050200003F48033002B03D0BA693B691343BB619F
:10503000124ABB691360FB690133FB61FB690F2BEB
:105040007FF690AE00BF00BF2437BD465DF8047BFD
:10505000704700BF003802400038014000000240A5
:105060000004024000080240000C02400010024010
:105070000014024000180240001C0240003C0140A5
:1050800080B485B000AF78600B467B807B681A697E
:105090007B881340002B02D00123FB7301E0002327
:1050A000FB73FB7B18461437BD465DF8047B7047E5
:1050B00080B483B000AF78600B467B8013467B7072
:1050C0007B78002B03D07A887B689A6103E07B8829
:1050D0001A047B689A6100BF0C37BD465DF8047BFB
:1050E000704780B485B000AF78600B467B807B68EA
:1050F0005B69FB607A88FB6813401A04FB68D9433C
:105100007B880B401A437B689A6100BF1437BD4609
:105110005DF8047B7047000080B582B000AF0346A5
:10512000FB80084B5A69FB881340002B06D0054AC8
:10513000FB885361FB881846FCF7C4FE00BF0837A4
:10514000BD4680BD003C014080B586B000AF7860B0
:105150007B68002B01D1012367E27B681B6803F0A9
:105160000103002B75D0884B9B6803F00C03042BC4
:105170000CD0854B9B6803F00C03082B12D1824B9B
:105180005B6803F48003B3F5800F0BD17E4B1B6883
:1051900003F40033002B5BD07B685B68002B57D196
:1051A000012342E27B685B68B3F5803F06D1764B12
:1051B0001B68754A43F4803313601DE07B685B68AD
:1051C000B3F5A02F0CD1704B1B686F4A43F48023BA
:1051D00013606D4B1B686C4A43F4803313600BE023
:1051E000694B1B68684A23F480331360664B1B6865
:1051F000654A23F4802313607B685B68002B13D01F
:10520000FEF77CFC386108E0FEF778FC02463B695B
:10521000D31A642B01D9032307E25B4B1B6803F409
:105220000033002BF0D014E0FEF768FC386108E092
:10523000FEF764FC02463B69D31A642B01D90323B1
:10524000F3E1514B1B6803F40033002BF0D100E075
:1052500000BF7B681B6803F00203002B63D04A4B3E
:105260009B6803F00C03002B0BD0474B9B6803F0AB
:105270000C03082B1CD1444B5B6803F48003002B08
:1052800016D1414B1B6803F00203002B05D07B684D
:10529000DB68012B01D00123C7E13B4B1B6823F0E6
:1052A000F8027B681B69DB00374913430B603AE067
:1052B0007B68DB68002B20D0344B01221A60FEF79C
:1052C0001DFC386108E0FEF719FC02463B69D31A61
:1052D000022B01D90323A8E12B4B1B6803F0020327
:1052E000002BF0D0284B1B6823F0F8027B681B6969
:1052F000DB00254913430B6015E0244B00221A60A4
:10530000FEF7FCFB386108E0FEF7F8FB02463B695C
:10531000D31A022B01D9032387E11B4B1B6803F02F
:105320000203002BF0D17B681B6803F00803002BFD
:1053300036D07B685B69002B16D0154B01221A60B2
:10534000FEF7DCFB386108E0FEF7D8FB02463B695C
:10535000D31A022B01D9032367E10B4B5B6F03F0D8
:105360000203002BF0D01BE0094B00221A60FEF76D
:10537000C5FB38610EE0FEF7C1FB02463B69D31A5C
:10538000022B07D9032350E10038024000004742B6
:10539000800E4742884B5B6F03F00203002BEAD17B
:1053A0007B681B6803F00403002B00F09780002348
:1053B000FB75814B1B6C03F08053002B0FD1002336
:1053C000BB607D4B1B6C7C4A43F0805313647A4B6B
:1053D0001B6C03F08053BB60BB680123FB75774BEC
:1053E0001B6803F48073002B18D1744B1B68734A3D
:1053F00043F480731360FEF781FB386108E0FEF729
:105400007DFB02463B69D31A022B01D903230CE131
:105410006A4B1B6803F48073002BF0D07B689B6899
:10542000012B06D1644B1B6F634A43F001031367E2
:105430001CE07B689B68052B0CD15F4B1B6F5E4AA1
:1054400043F0040313675C4B1B6F5B4A43F001039B
:1054500013670BE0584B1B6F574A23F00103136788
:10546000554B1B6F544A23F0040313677B689B68FA
:10547000002B15D0FEF742FB38610AE0FEF73EFB39
:1054800002463B69D31A41F28832934201D9032381
:10549000CBE0494B1B6F03F00203002BEED014E06E
:1054A000FEF72CFB38610AE0FEF728FB02463B6959
:1054B000D31A41F28832934201D90323B5E03E4B1F
:1054C0001B6F03F00203002BEED1FB7D012B05D1F6
:1054D000394B1B6C384A23F0805313647B689B69FB
:1054E000002B00F0A180344B9B6803F00C03082BC9
:1054F0005CD07B689B69022B41D1314B00221A6042
:10550000FEF7FCFA386108E0FEF7F8FA02463B695C
:10551000D31A022B01D9032387E0274B1B6803F022
:105520000073002BF0D17B68DA697B681B6A1A4331
:105530007B685B6A9B011A437B689B6A5B08013B43
:105540001B041A437B68DB6A1B061B4913434B6031
:105550001B4B01221A60FEF7D1FA386108E0FEF712
:10556000CDFA02463B69D31A022B01D903235CE032
:10557000114B1B6803F00073002BF0D054E0104B6C
:1055800000221A60FEF7BAFA386108E0FEF7B6FAB0
:1055900002463B69D31A022B01D9032345E0064B8F
:1055A0001B6803F00073002BF0D13DE07B689B6922
:1055B000012B07D1012338E0003802400070004081
:1055C000600047421B4B5B68FB607B689B69012B5B
:1055D00028D0FB6803F480027B68DB699A4221D102
:1055E000FB6803F03F027B681B6A9A421AD1FA6893
:1055F00047F6C07313407A68526A9201934211D100
:10560000FB6803F440327B689B6A5B08013B1B0428
:105610009A4207D1FB6803F070627B68DB6A1B0665
:105620009A4201D0012300E0002318461837BD46F6
:1056300080BD00BF0038024080B584B000AF786004
:1056400039607B68002B01D10123CCE0684B1B68DB
:1056500003F007033A689A420CD9654B3A68D2B214
:105660001A70634B1B6803F007033A689A4201D033
:105670000123B8E07B681B6803F00203002B20D0F5
:105680007B681B6803F00403002B05D0594B9B6813
:10569000584A43F4E05393607B681B6803F00803A7
:1056A000002B05D0534B9B68524A43F460439360F0
:1056B000504B9B6823F0F0027B689B684D49134375
:1056C0008B607B681B6803F00103002B44D07B6870
:1056D0005B68012B07D1474B1B6803F40033002B99
:1056E00019D101237FE07B685B68022B03D07B68C4
:1056F0005B68032B07D13F4B1B6803F00073002B43
:1057000009D101236FE03B4B1B6803F00203002B20
:1057100001D1012367E0374B9B6823F003027B68CC
:105720005B68344913438B60FEF7E8F9F8600AE0E0
:10573000FEF7E4F90246FB68D31A41F2883293423D
:1057400001D903234FE02B4B9B6803F00C027B68CD
:105750005B689B009A42EBD1254B1B6803F0070363
:105760003A689A420CD2224B3A68D2B21A70204B55
:105770001B6803F007033A689A4201D0012332E024
:105780007B681B6803F00403002B08D0194B9B684F
:1057900023F4E0527B68DB68164913438B607B6817
:1057A0001B6803F00803002B09D0124B9B6823F4FD
:1057B00060427B681B69DB000E4913438B6000F07D
:1057C00021F802460B4B9B681B0903F00F030A49A3
:1057D000CB5C22FA03F3094A1360094B1B68184695
:1057E000FEF744F8002318461037BD4680BD00BFC1
:1057F000003C024000380240E093000850000020C6
:10580000540000202DE9B04F94B000AF00237B641A
:105810000023FB6400233B640023BB64794B9B683B
:1058200003F00C03082B0DD0082B00F2E180002BB5
:1058300002D0042B03D0DBE0734BBB64DBE0734B83
:10584000BB64D8E06F4B5B6803F03F037B646D4B38
:105850005B6803F48003002B63D06A4B5B689B0991
:105860000022BB63FA63BB6BC3F308033B630023F3
:105870007B63D7E90C4522462B464FF000004FF0E2
:105880000001590141EAD261500102460B4621460E
:10589000511A3961294663EB01037B614FF0000225
:1058A0004FF00003D7E904AB59468B01514643EA58
:1058B000916351468A015146B2EB0108594663EBA8
:1058C00001094FF000024FF000034FEAC90343EA19
:1058D00058734FEAC80290469946234618EB0303D3
:1058E000BB602B4649EB0303FB604FF000024FF017
:1058F0000003D7E9024529464B02214643EAD1532A
:1059000021464A02104619467B6C0022BB62FA62AD
:10591000D7E90A23FBF7DAF802460B461346FB6485
:1059200058E0384B5B689B09002218461146C0F3CB
:1059300008033B6200237B62D7E9088942464B4655
:105940004FF000004FF00001590141EAD2615001CF
:1059500002460B464146B2EB010A494663EB010B96
:105960004FF000024FF000034FEA8B1343EA9A63B3
:105970004FEA8A12B2EB0A0463EB0B054FF0000208
:105980004FF00003EB0043EA5473E20014461D4657
:105990004346E3183B604B4645EB03037B604FF007
:1059A00000024FF00003D7E9004529468B0221464B
:1059B00043EA915321468A02104619467B6C002225
:1059C000BB61FA61D7E90623FBF780F802460B4674
:1059D0001346FB640B4B5B681B0C03F003030133A2
:1059E0005B003B64FA6C3B6CB2FBF3F3BB6402E01C
:1059F000054BBB6400BFBB6C18465037BD46BDE8C5
:105A0000B08F00BF003802400024F40000127A007A
:105A100080B400AF034B1B681846BD465DF8047B9D
:105A2000704700BF5000002080B500AFFFF7F0FFC7
:105A30000246054B9B689B0A03F007030349CB5CB6
:105A400022FA03F3184680BD00380240F0930008A4
:105A500080B500AFFFF7DCFF0246054B9B685B0B90
:105A600003F007030349CB5C22FA03F3184680BD19
:105A700000380240F093000880B483B000AF786033
:105A800039607B680F221A60124B9B6803F0030297
:105A90007B685A600F4B9B6803F0F0027B689A604A
:105AA0000C4B9B6803F4E0527B68DA60094B9B68FF
:105AB000DB0803F4E0527B681A61074B1B6803F0B4
:105AC00007023B681A6000BF0C37BD465DF8047BD7
:105AD000704700BF00380240003C024080B582B0F1
